:020000040800F2
:1000000000280020F11700085D13000863130008A2
:10001000691300086F130008751300080000000042
:100020000000000000000000000000007B1300083A
:100030008713000800000000931300089F130008B6
:10004000391800083918000839180008391800084C
:10005000391800083918000839180008391800083C
:10006000391800083918000839180008391800082C
:10007000391800083918000839180008391800081C
:10008000391800083918000839180008391800080C
:1000900039180008391800083918000839180008FC
:1000A00039180008391800083918000839180008EC
:1000B000AD130008391800080000000039180008C6
:1000C000391800080000000000000000391800087E
:1000D000000000003918000839180008000000006E
:1000E0003918000839180008391800080000000005
:1000F0000000000000000000000000000000000000
:0C01000000000000000000005FF808F1A3
:10010C0010B5054C237833B9044B13B10448AFF345
:10011C0000800123237010BD44000020000000006B
:10012C00602E000808B5034B1BB103490348AFF31D
:10013C00008008BD0000000048000020602E000870
:10014C004FF0FF0C1CEAD0521EBF1CEAD15392EAAE
:10015C000C0F93EA0C0F6FD01A4480EA010C40028A
:10016C0018BF5FEA41211ED04FF0006343EA5010E4
:10017C0043EA5111A0FB01310CF00040B1F5000F26
:10018C003EBF490041EAD3715B0040EA010062F1D5
:10019C007F02FD2A1DD8B3F1004F40EBC25008BFBF
:1001AC0020F00100704790F0000F0CF0004C08BFDD
:1001BC0049024CEA502040EA51207F3AC2BFD2F1AA
:1001CC00FF0340EAC250704740F400004FF00003B8
:1001DC00013A5DDC12F1190FDCBF00F000407047F2
:1001EC00C2F10002410021FA02F1C2F1200200FA30
:1001FC0002FC5FEA310040F1000053EA4C0308BFF7
:10020C0020EADC70704792F0000F00F0004C02BF47
:10021C00400010F4000F013AF9D040EA0C0093F0C2
:10022C00000F01F0004C02BF490011F4000F013B1C
:10023C00F9D041EA0C018FE70CEAD15392EA0C0F8A
:10024C0018BF93EA0C0F0AD030F0004C18BF31F0F5
:10025C00004CD8D180EA010000F00040704790F0CB
:10026C00000F17BF90F0004F084691F0000F91F06F
:10027C00004F14D092EA0C0F01D142020FD193EA35
:10028C000C0F03D14B0218BF084608D180EA0100BD
:10029C0000F0004040F0FE4040F40000704740F099
:1002AC00FE4040F44000704780F0004002E000BF88
:1002BC0081F0004142001FBF5FEA410392EA030F45
:1002CC007FEA226C7FEA236C6AD04FEA1262D2EB8F
:1002DC001363C1BFD218414048404140B8BF5B4294
:1002EC00192B88BF704710F0004F40F4000020F02D
:1002FC007F4018BF404211F0004F41F4000121F043
:10030C007F4118BF494292EA030F3FD0A2F101028C
:10031C0041FA03FC10EB0C00C3F1200301FA03F1CA
:10032C0000F0004302D5494260EB4000B0F5000FED
:10033C0013D3B0F1807F06D340084FEA310102F1AC
:10034C000102FE2A51D2B1F1004F40EBC25008BF5E
:10035C0020F0010040EA03007047490040EB000028
:10036C00013A28BFB0F5000FEDD2B0FA80FCACF129
:10037C00080CB2EB0C0200FA0CF0AABF00EBC25056
:10038C0052421843BCBFD0401843704792F0000F44
:10039C0081F4000106BF80F400000132013BB5E797
:1003AC004FEA41037FEA226C18BF7FEA236C21D00D
:1003BC0092EA030F04D092F0000F08BF0846704772
:1003CC0090EA010F1CBF0020704712F07F4F04D140
:1003DC00400028BF40F00040704712F100723CBF53
:1003EC0000F50000704700F0004343F0FE4040F47D
:1003FC00000070477FEA226216BF08467FEA23633B
:10040C000146420206BF5FEA412390EA010F40F425
:10041C00800070474FF0000304E000BF10F0004371
:10042C0048BF40425FEA000C08BF704743F0964358
:10043C0001464FF000001CE050EA010208BF704773
:10044C004FF000030AE000BF50EA010208BF7047FA
:10045C0011F0004302D5404261EB41015FEA010C0F
:10046C0002BF84460146002043F0B64308BFA3F107
:10047C008053A3F50003BCFA8CF2083AA3EBC253E9
:10048C0010DB01FA02FC634400FA02FCC2F1200208
:10049C00BCF1004F20FA02F243EB020008BF20F03F
:1004AC000100704702F1200201FA02FCC2F12002A5
:1004BC0050EA4C0021FA02F243EB020008BF20EA9A
:1004CC00DC7070474FEA4002B2F1FE4F0FD34FF091
:1004DC009E03B3EB12620DD94FEA002343F00043A5
:1004EC0010F0004F23FA02F018BF404270474FF053
:1004FC000000704712F1610F01D1420205D110F0DA
:10050C00004008BF6FF0004070474FF0000070478C
:10051C0080B400AF034B01221A6000BFBD4680BC03
:10052C00704700BF6000002080B400AF064B1B6812
:10053C00012B04D1044B00221A60012300E000239C
:10054C001846BD4680BC70476000002080B400AFE8
:10055C00034B01221A6000BFBD4680BC704700BF30
:10056C006400002080B400AF064B1B68012B04D143
:10057C00044B00221A60012300E000231846BD46FC
:10058C0080BC70476400002080B400AF034B012294
:10059C001A6000BFBD4680BC704700BF68000020D9
:1005AC0080B400AF064B1B68012B04D1044B002216
:1005BC001A60012300E000231846BD4680BC70473A
:1005CC006800002080B500AF5C4B1B685C4A136070
:1005DC005C4B1B68594A13604FF400415A4801F0B8
:1005EC0011FC03461A46574B1A60554B1A68534B6D
:1005FC001B689A4225D1514B1A68524B1B689A4280
:10060C001FD1524B1A684F4B1B689A420DD04D4B61
:10061C001B684E4A13604B4B1B68002B11D1FFF724
:10062C0077FF4B4BC8221A600BE0494B1B68013B10
:10063C00474A1360464B1B68002B02D1434B0122E7
:10064C001A60444B1B68444A1360444B1B68414A74
:10065C0013604FF480413C4801F0D4FB03461A462A
:10066C003E4B1A603C4B1A683A4B1B689A4225D198
:10067C00384B1A68394B1B689A421FD1384B1A6891
:10068C00364B1B689A420DD0344B1B68344A1360AE
:10069C00324B1B68002B11D1FFF758FF2C4BC82293
:1006AC001A600BE02A4B1B68013B294A1360284B4C
:1006BC001B68002B02D12A4B01221A60294B1B68A4
:1006CC00294A1360294B1B68264A13604FF40051CA
:1006DC001D4801F097FB03461A46244B1A60224B27
:1006EC001A68204B1B689A4225D1204B1A681D4B67
:1006FC001B689A421FD11E4B1A681C4B1B689A42EE
:10070C000DD01A4B1B681A4A1360184B1B68002B30
:10071C0011D1FFF739FF0E4BC8221A600BE00C4BBE
:10072C001B68013B0A4A1360094B1B68002B02D162
:10073C000F4B01221A6000BF80BD00BF04000020D7
:10074C000000002008000020000C01400C000020DC
:10075C0030000020140000201000002018000020A1
:10076C001C00002024000020200000202800002075
:10077C002C00002080B500AF012202210E4801F0B0
:10078C0058FB012204210C4801F053FB01220821E3
:10079C00094801F04EFB01221021074801F049FBEA
:1007AC0001222021044801F044FB0122402102488F
:1007BC0001F03FFB00BF80BD0008014080B500AFD9
:1007CC00002202210E4801F034FB002204210C48C7
:1007DC0001F02FFB00220821094801F02AFB00221E
:1007EC001021074801F025FB00222021044801F0CC
:1007FC0020FB00224021024801F01BFB00BF80BD02
:10080C000008014080B500AF00220221074801F02A
:10081C0010FB01220421054801F00BFB01220821E9
:10082C00024801F006FB00BF80BD00BF000801407C
:10083C0080B500AF01220221074801F0FAFA01222B
:10084C000421054801F0F5FA00220821024801F0C4
:10085C00F0FA00BF80BD00BF0008014080B500AFBA
:10086C0001220221074801F0E4FA00220421054884
:10087C0001F0DFFA01220821024801F0DAFA00BF88
:10088C0080BD00BF0008014080B500AF00221021E0
:10089C00074801F0CEFA01222021054801F0C9FADF
:1008AC0001224021024801F0C4FA00BF80BD00BF04
:1008BC000008014080B500AF01221021074801F06B
:1008CC00B8FA01222021054801F0B3FA0022402198
:1008DC00024801F0AEFA00BF80BD00BF0008014025
:1008EC0080B500AF01221021074801F0A2FA0022C6
:1008FC002021054801F09DFA01224021024801F017
:10090C0098FA00BF80BD00BF0008014080B500AF61
:10091C00FFF778FFFFF7B8FF00BF80BD80B500AFD1
:10092C00FFF786FFFFF7C6FF00BF80BD80B500AFA5
:10093C00FFF794FFFFF7D4FF00BF80BD80B582B0F6
:10094C0000AF78607B68032B52D801A252F823F0D9
:10095C006D09000891090008B5090008D9090008BB
:10096C00264B1B68184600F05FF800224FF480718C
:10097C00234801F05EFA01224FF40061204801F097
:10098C0058FA36E01D4B5B68184600F04DF8002213
:10099C004FF400711A4801F04CFA01224FF48071A7
:1009AC00174801F046FA24E0144B9B68184600F0F7
:1009BC003BF800224FF48061114801F03AFA012211
:1009CC004FF400710E4801F034FA12E00B4BDB6867
:1009DC00184600F029F800224FF40061084801F095
:1009EC0028FA01224FF48061054801F022FA00E058
:1009FC0000BF00BF0837BD4680BD00BF940000207B
:100A0C000008014080B483B000AF786039600549BC
:100A1C007B683A6841F8232000BF0C37BD4680BC88
:100A2C00704700BF9400002080B582B000AF7860A2
:100A3C007B68092B00F2808101A252F823F000BFE1
:100A4C00750A0008BD0A0008050B00084D0B0008CC
:100A5C00950B0008DD0B0008250C00086D0C000838
:100A6C00B50C0008FD0C000800220121B54801F06E
:100A7C00E0F900220221B34801F0DBF90022042145
:100A8C00B04801F0D6F900220821AE4801F0D1F9A6
:100A9C0000221021AB4801F0CCF900222021A948FA
:100AAC0001F0C7F901224021A64801F0C2F944E146
:100ABC0001220121A34801F0BCF900220221A14826
:100ACC0001F0B7F9002204219E4801F0B2F901228D
:100ADC0008219C4801F0ADF901221021994801F040
:100AEC00A8F901222021974801F0A3F90122402105
:100AFC00944801F09EF920E100220121914801F077
:100B0C0098F9002202218F4801F093F90122042167
:100B1C008C4801F08EF9002208218A4801F089F9ED
:100B2C0000221021874801F084F9012220218548F8
:100B3C0001F07FF900224021824801F07AF9FCE0B3
:100B4C00002201217F4801F074F9002202217D4826
:100B5C0001F06FF9002204217A4801F06AF90022B1
:100B6C000821784801F065F901221021754801F03F
:100B7C0060F901222021734801F05BF90022402129
:100B8C00704801F056F9D8E0012201216D4801F0BE
:100B9C0050F9002202216B4801F04BF9002204218C
:100BAC00684801F046F901220821664801F041F934
:100BBC0001221021634801F03CF9002220216148F8
:100BCC0001F037F9002240215E4801F032F9B4E01F
:100BDC00002201215B4801F02CF901220221594825
:100BEC0001F027F900220421564801F022F90022D5
:100BFC000821544801F01DF901221021514801F03F
:100C0C0018F9002220214F4801F013F9002240214D
:100C1C004C4801F00EF990E000220121494801F006
:100C2C0008F901220221474801F003F900220421AE
:100C3C00444801F0FEF800220821424801F0F9F87E
:100C4C00002210213F4801F0F4F8002220213D48F9
:100C5C0001F0EFF8002240213A4801F0EAF86CE08C
:100C6C0000220121374801F0E4F800220221354826
:100C7C0001F0DFF800220421324801F0DAF80122F9
:100C8C000821304801F0D5F8012210212D4801F03F
:100C9C00D0F8012220212B4801F0CBF80122402171
:100CAC00284801F0C6F848E000220121254801F04F
:100CBC00C0F800220221234801F0BBF800220421D5
:100CCC00204801F0B6F8002208211E4801F0B1F8C6
:100CDC00002210211B4801F0ACF8002220211948F9
:100CEC0001F0A7F800224021164801F0A2F824E0F8
:100CFC0000220121134801F09CF800220221114826
:100D0C0001F097F8002204210E4801F092F800221D
:100D1C0008210C4801F08DF801221021094801F03E
:100D2C0088F800222021074801F083F80022402196
:100D3C00044801F07EF800E000BF00BF0837BD4654
:100D4C0080BD00BF000C014080B500AF674B1B6835
:100D5C00042B00F2BE8001A252F823F07D0D000896
:100D6C00E50D0008210E00085D0E0008990E000824
:100D7C00FFF724FD08210020FFF744FE0821012085
:100D8C00FFF740FE08210220FFF73CFE082103205C
:100D9C00FFF738FEFFF7C8FB0346012B40F09B80A2
:100DAC00534B01221A60534B02221A60524B0522FC
:100DBC001A60524B03221A6000210020FFF722FE1A
:100DCC0001210120FFF71EFE4FF47A7000F0E4F9C8
:100DDC00464B01221A607EE000F0F2FAFFF7A4FB0A
:100DEC000346012B79D1414B02221A60444B4FF040
:100DFC007C521A60434B00221A604FF4FA7000F0D8
:100E0C00CBF900210020FFF7FDFD02210120FFF7A7
:100E1C00F9FD62E000F0AEFBFFF786FB0346012B09
:100E2C005DD1324B03221A60354B4FF07C521A6065
:100E3C00344B00221A604FF4FA7000F0ADF9002127
:100E4C000020FFF7DFFD03210120FFF7DBFD46E06B
:100E5C0000F0F8FBFFF768FB0346012B41D1234B55
:100E6C0004221A60264B4FF07C521A60254B00224C
:100E7C001A604FF4FA7000F08FF900210020FFF790
:100E8C00C1FD04210120FFF7BDFD2AE000F042FC6A
:100E9C00FFF74AFB0346012B25D1154B01221A60A3
:100EAC00144B02221A60144B05221A60134B0322B6
:100EBC001A6000210020FFF7A5FD01210120FFF79A
:100ECC00A1FD4FF47A7000F067F9084B01221A600B
:100EDC0009E000BF08E000BF06E000BF04E000BF6F
:100EEC0002E000BF00E000BF00BF80BD6C0000202E
:100EFC008C00002090000020EC000020F00000206E
:100F0C00380000208800002080B582B000AF00F0CF
:100F1C008FFC00F045F800F0CBF800F07DF81C4891
:100F2C0001F0D8FB1B4B00221A60322000F064F950
:100F3C0000237B6000224FF48071174800F079FF8A
:100F4C0001224FF40071144800F073FF01224FF49A
:100F5C008061114800F06DFF01224FF400610E48D2
:100F6C0000F067FFFFF7F0FE0C4B1B68012BF9D16B
:100F7C007B685A1C7A601846FFF7E0FC7B68032BF1
:100F8C0001DD00237B60322000F036F9EAE700BF78
:100F9C00A40000206C00002000080140800000200C
:100FAC0080B590B000AF07F1180328220021184635
:100FBC0001F048FF3B1D00221A605A609A60DA600B
:100FCC001A610223BB610123BB621023FB62002365
:100FDC007B6307F11803184600F044FF0346002B0F
:100FEC0001D000F0D3F80F237B600023BB600023FB
:100FFC00FB6000233B6100237B613B1D00211846F5
:10100C0001F0B0F90346002B01D000F0BFF800BF8F
:10101C004037BD4680BD000080B586B000AF07F1FB
:10102C00080300221A605A609A60DA603B4600227C
:10103C001A605A601D4B4FF080421A601B4B41F6F0
:10104C003F725A60194B00229A60184B0A22DA60E0
:10105C00164B00221A61154B00229A61134801F0BD
:10106C00E9FA0346002B01D000F090F84FF48053BE
:10107C00BB6007F1080319460C4801F07FFC0346DE
:10108C00002B01D000F082F800233B6000237B6032
:10109C003B461946054801F047FE0346002B01D09C
:1010AC0000F074F800BF1837BD4680BDA4000020C6
:1010BC0080B586B000AF07F1080300221A605A60B1
:1010CC009A60DA60284B9B69274A43F004039361CA
:1010DC00254B9B6903F004037B607B68224B9B6967
:1010EC00214A43F0080393611F4B9B6903F00803EB
:1010FC003B603B68002240F67E711C4800F099FE74
:10110C0000227F211A4800F094FE40F67E73BB60EB
:10111C000123FB6000233B6102237B6107F1080381
:10112C001946124800F0F4FC7F23BB600123FB60DE
:10113C0000233B6102237B6107F1080319460C482D
:10114C0000F0E6FC4FF46043BB600023FB6001231E
:10115C003B6107F108031946054800F0D9FC00BFB4
:10116C001837BD4680BD00BF00100240000801408A
:10117C00000C014080B582B000AF786000F050F8F0
:10118C00FFF720FA00BF0837BD4680BD80B400AF22
:10119C0072B600BFFEE7000080B483B000AF786089
:1011AC00084B00221A607B68074A82FB03129210DC
:1011BC00DB17D31A054A136000BF0C37BD4680BC41
:1011CC00704700BF700000206766666674000020E0
:1011DC0080B483B000AF7860054B00221A60054ADA
:1011EC007B68136000BF0C37BD4680BC704700BFE6
:1011FC00780000207C00002080B483B000AF7860C1
:10120C00054B00221A60054A7B68136000BF0C373F
:10121C00BD4680BC704700BF8000002084000020C9
:10122C0080B400AF194B1B68002B0BDD174B1B68F0
:10123C00013B164A1360154B1B68002B02DC144B48
:10124C0001221A60134B1B68002B0BDD114B1B6822
:10125C00013B104A13600F4B1B68002B02DC0E4B3A
:10126C0001221A600D4B1B68002B0BDD0B4B1B680E
:10127C00013B0A4A1360094B1B68002B02DC084B2C
:10128C0001221A6000BFBD4680BC7047740000206C
:10129C00700000207C0000207800002084000020DA
:1012AC008000002080B485B000AF154B9B69144AB8
:1012BC0043F001039361124B9B6903F00103BB6084
:1012CC00BB680F4BDB690E4A43F08053D3610C4B68
:1012DC00DB6903F080537B607B680A4B5B68FB60C7
:1012EC00FB6823F0E063FB60FB6843F08063FB600A
:1012FC00044AFB68536000BF1437BD4680BC70477E
:10130C00001002400000014080B584B000AF78604E
:10131C007B681B68B3F1804F13D10C4BDB690B4A14
:10132C0043F00103D361094BDB6903F00103FB605C
:10133C00FB68002200211C2000F0B3FB1C2000F0F5
:10134C00CCFB00BF1037BD4680BD00BF0010024073
:10135C0080B400AFFEE780B400AFFEE780B400AF0E
:10136C00FEE780B400AFFEE780B400AFFEE780B4C8
:10137C0000AF00BFBD4680BC704780B400AF00BF5B
:10138C00BD4680BC704780B400AF00BFBD4680BC7A
:10139C00704780B500AF00F091FA00BF80BD00002F
:1013AC0080B500AF024801F0E1F900BF80BD00BF7D
:1013BC00A400002080B400AF00BFBD4680BC7047C5
:1013CC0080B500AF664B1B68012B0DD1654B1B68BC
:1013DC00013B644A1360644B1B68013B624A136017
:1013EC004FF47A70FFF7D8FE604B1B68032B4FD875
:1013FC0001A252F823F000BF151400082B140008AA
:10140C005114000877140008554B1B68012B41D16F
:10141C00544B05221A60554B01221A603AE0FFF733
:10142C00F1F9504B1B6819460220FFF7EBFA4D4BB4
:10143C001B68002B30D14B4B03221A604B4B022202
:10144C001A6029E0FFF7F4F9464B1B681946022095
:10145C00FFF7D8FA434B1B68002B1FD1414B0222DC
:10146C001A60424B03221A6018E0FFF7F7F93D4B64
:10147C001B6819460220FFF7C5FA3A4B1B68002B74
:10148C000ED1384B05221A60384B01221A6007E046
:10149C0000BF06E000BF04E000BF02E000BF00E0B8
:1014AC0000BF334B1B68032B4ED801A252F823F01C
:1014BC00CD140008E3140008091500082F150008C6
:1014CC00274B1B68012B41D1274B03221A60284B59
:1014DC0002221A603AE0FFF7D7F9234B1B68194632
:1014EC000320FFF78FFA204B1B68002B30D11E4BCB
:1014FC0003221A601E4B02221A6029E0FFF7DAF968
:10150C00194B1B6819460320FFF77CFA164B1B6816
:10151C00002B1FD1144B02221A60154B03221A60A8
:10152C0018E0FFF7DDF9104B1B6819460320FFF795
:10153C0069FA0D4B1B68002B0ED10B4B05221A6060
:10154C000B4B01221A6007E000BF06E000BF04E06D
:10155C0000BF02E000BF00E000BF00BF80BD00BFC5
:10156C0070000020EC000020F00000208C00002017
:10157C009000002080B500AF2C4B1B682C4A82FBDE
:10158C0003129210DB17D31A19460220FFF73AFA0E
:10159C00264B1A68264B83FB02139910D317C91AD2
:1015AC000B469B000B445B00D11A0320FFF72AFA71
:1015BC00204B1B68012B12D1FFF7A8F90520FFF770
:1015CC0007FE1D4B1B681D491846FEF7B9FD034667
:1015DC001846FEF777FF03461846FFF7DDFD184B5C
:1015EC001B68012B01D1FFF7C5F8FEF7BBFF0346C3
:1015FC00012B0BD10D4B1B6801330C4A13600B4BA9
:10160C001B68632B02DD094B01221A60FEF7C8FF31
:10161C000346012B07D1054B1B681846FEF7FEFE4F
:10162C000346054A136000BF80BD00BF8800002040
:10163C0067666666700000203800002000007A445F
:10164C007800002080B500AF2C4B1B682C4A82FB25
:10165C0003129210DB17D31A19460220FFF7D2F9A6
:10166C00264B1A68264B83FB02139910D317C91A01
:10167C000B469B000B445B00D11A0320FFF7C2F909
:10168C00204B1B68012B12D1FFF750F90520FFF7F7
:10169C009FFD1D4B1B681D491846FEF751FD034667
:1016AC001846FEF70FFF03461846FFF775FD184B5B
:1016BC001B68012B01D1FFF75DF8FEF753FF0346C2
:1016CC00012B0BD10D4B1B6801330C4A13600B4BD8
:1016DC001B68632B02DD094B01221A60FEF760FFC9
:1016EC000346012B07D1054B1B681846FEF796FEE7
:1016FC000346054A136000BF80BD00BF8800002070
:10170C0067666666700000203800002000007A448E
:10171C007800002080B500AF2C4B1B682C4A82FB54
:10172C0003129210DB17D31A19460220FFF76AF93D
:10173C00264B1A68264B83FB02139910D317C91A30
:10174C000B469B000B445B00D11A0320FFF75AF9A0
:10175C00204B1B68012B12D1FFF7E0F80520FFF797
:10176C0037FD1D4B1B681D491846FEF7E9FC034667
:10177C001846FEF7A7FE03461846FFF70DFD184B5B
:10178C001B68012B01D1FEF7F5FFFEF7EBFE0346BC
:10179C00012B0BD10D4B1B6801330C4A13600B4B07
:1017AC001B68632B02DD094B01221A60FEF7F8FE61
:1017BC000346012B07D1054B1B681846FEF72EFE7E
:1017CC000346054A136000BF80BD00BF880000209F
:1017DC0067666666700000203800002000007A44BE
:1017EC00780000200C480D490D4A002302E0D45823
:1017FC00C4500433C4188C42F9D30A4A0A4C00234F
:10180C0001E013600432A242FBD3FFF7D3FD01F0D9
:10181C00F5FAFFF779FB7047000000204400002028
:10182C00A02E000844000020F8000020FEE7000075
:10183C0080B500AF084B1B68074A43F010031360D8
:10184C00032000F023F90F2000F008F8FFF72AFD21
:10185C000023184680BD00BF0020024080B582B036
:10186C0000AF7860124B1A68124B1B7819464FF474
:10187C007A73B3FBF1F3B2FBF3F3184600F03BF9C8
:10188C000346002B01D001230EE07B680F2B0AD8F6
:10189C00002279684FF0FF3000F003F9064A7B68AC
:1018AC001360002300E0012318460837BD4680BDB5
:1018BC0034000020400000203C00002080B400AF29
:1018CC00054B1B781A46054B1B681344034A1360DF
:1018DC0000BFBD4680BC704740000020F4000020D3
:1018EC0080B400AF024B1B681846BD4680BC7047E5
:1018FC00F400002080B485B000AF78607B6803F002
:10190C000703FB600C4BDB68BB60BA684FF6FF0348
:10191C001340BB60FB681A02BB68134343F0BF6300
:10192C0043F40033BB60044ABB68D36000BF143778
:10193C00BD4680BC704700BF00ED00E080B400AF36
:10194C00044BDB681B0A03F007031846BD4680BC3A
:10195C00704700BF00ED00E080B483B000AF0346D9
:10196C00FB7197F90730002B0BDBFB7903F01F029F
:10197C00064997F907305B09012000FA02F241F899
:10198C00232000BF0C37BD4680BC704700E100E04F
:10199C0080B483B000AF03463960FB7197F9073010
:1019AC00002B0ADB3B68DAB20C4997F907301201BD
:1019BC00D2B20B4483F800230AE03B68DAB2084940
:1019CC00FB7903F00F03043B1201D2B20B441A76DD
:1019DC0000BF0C37BD4680BC704700BF00E100E083
:1019EC0000ED00E080B489B000AFF860B9607A60B7
:1019FC00FB6803F00703FB61FB69C3F10703042BCE
:101A0C0028BF0423BB61FB690433062B02D9FB6995
:101A1C00033B00E000237B614FF0FF32BB6902FA0D
:101A2C0003F3DA43BB681A407B699A404FF0FF31ED
:101A3C007B6901FA03F3D9437B680B4013431846C7
:101A4C002437BD4680BC704780B582B000AF78604B
:101A5C007B68013BB3F1807F01D301230FE00A4A7D
:101A6C007B68013B53600F214FF0FF30FFF790FF75
:101A7C00054B00229A60044B07221A60002318467B
:101A8C000837BD4680BD00BF10E000E080B582B0D5
:101A9C0000AF78607868FFF72DFF00BF0837BD46B0
:101AAC0080BD80B586B000AF0346B9607A60FB7329
:101ABC0000237B61FFF742FF78617A68B968786927
:101ACC00FFF790FF024697F90F3011461846FFF7C3
:101ADC005FFF00BF1837BD4680BD80B582B000AF38
:101AEC000346FB7197F907301846FFF735FF00BF27
:101AFC000837BD4680BD80B582B000AF786078688D
:101B0C00FFF7A2FF034618460837BD4680BD00000C
:101B1C0080B48BB000AF7860396000237B62002307
:101B2C003B6248E101227B6A02FA03F3FB613B68EA
:101B3C001B68FA691340BB61BA69FB699A4240F0B1
:101B4C0037813B685B68A34A93425ED0A14A9342BB
:101B5C0075D8A14A934258D09F4A93426FD89F4A56
:101B6C00934252D09D4A934269D89D4A93424CD09D
:101B7C009B4A934263D89B4A934246D0994A9342DC
:101B8C005DD8122B2AD8122B59D801A252F823F067
:101B9C00171C0008F11B0008031C0008451C00085A
:101BAC004B1C00084B1C00084B1C00084B1C00086D
:101BBC004B1C00084B1C00084B1C00084B1C00085D
:101BCC004B1C00084B1C00084B1C00084B1C00084D
:101BDC004B1C0008F91B00080D1C0008824A93429C
:101BEC0013D02CE03B68DB683B6229E03B68DB6888
:101BFC0004333B6224E03B68DB6808333B621FE044
:101C0C003B68DB680C333B621AE03B689B68002B3B
:101C1C0002D104233B6213E03B689B68012B05D186
:101C2C0008233B627B68FA691A6109E008233B626E
:101C3C007B68FA695A6103E000233B6200E000BF55
:101C4C00BB69FF2B01D87B6801E07B6804337B61A7
:101C5C00BB69FF2B02D87B6A9B0002E07B6A083BC6
:101C6C009B003B617B691A680F213B6901FA03F306
:101C7C00DB431A40396A3B6901FA03F31A437B6967
:101C8C001A603B685B6803F08053002B00F0908077
:101C9C00564B9B69554A43F001039361534B9B6927
:101CAC0003F00103BB60BB68514A7B6A9B0802339B
:101CBC0052F82330FB607B6A03F003039B000F2276
:101CCC0002FA03F3DB43FA681340FB607B68494A72
:101CDC0093420DD07B68484A934207D07B68474AB1
:101CEC00934201D1022304E0032302E0012300E02C
:101CFC0000237A6A02F0030292009340FA681343BD
:101D0C00FB603B497B6A9B080233FA6841F823204D
:101D1C003B685B6803F48033002B06D0384B1A68A1
:101D2C003749BB6913430B6006E0354B1A68BB6936
:101D3C00DB43334913400B603B685B6803F40033AF
:101D4C00002B06D02E4B5A682D49BB6913434B60B0
:101D5C0006E02B4B5A68BB69DB43294913404B60A7
:101D6C003B685B6803F48013002B06D0244B9A6805
:101D7C002349BB6913438B6006E0214B9A68BB690E
:101D8C00DB431F4913408B603B685B6803F4001313
:101D9C00002B06D01A4BDA681949BB691343CB6088
:101DAC0006E0174BDA68BB69DB4315491340CB607F
:101DBC007B6A01337B623B681A687B6A22FA03F305
:101DCC00002B7FF4AFAE00BF00BF2C37BD4680BCEC
:101DDC00704700BF000032100000311000002210CC
:101DEC000000211000001210000011100010024021
:101DFC000000014000080140000C014000100140AF
:101E0C000004014080B485B000AF78600B467B8045
:101E1C007B689A687B881340002B02D00123FB73EC
:101E2C0001E00023FB73FB7B18461437BD4680BCD6
:101E3C00704780B483B000AF78600B467B8013464C
:101E4C007B707B78002B03D07A887B681A6103E067
:101E5C007B881A047B681A6100BF0C37BD4680BCB6
:101E6C007047000080B586B000AF78607B68002BAF
:101E7C0001D101236CE27B681B6803F00103002B8A
:101E8C0000F08780924B5B6803F00C03042B0CD0A2
:101E9C008F4B5B6803F00C03082B12D18C4B5B68E7
:101EAC0003F48033B3F5803F0BD1894B1B6803F4EB
:101EBC000033002B6CD07B685B68002B68D101234E
:101ECC0046E27B685B68B3F5803F06D1804B1B68AC
:101EDC007F4A43F4803313602EE07B685B68002BF1
:101EEC000CD17B4B1B687A4A23F480331360784BFC
:101EFC001B68774A23F4802313601DE07B685B68C2
:101F0C00B3F5A02F0CD1724B1B68714A43F480239C
:101F1C0013606F4B1B686E4A43F4803313600BE005
:101F2C006B4B1B686A4A23F480331360684B1B6845
:101F3C00674A23F4802313607B685B68002B13D003
:101F4C00FFF7CEFC386108E0FFF7CAFC02463B699C
:101F5C00D31A642B01D90323FAE15D4B1B6803F4FC
:101F6C000033002BF0D014E0FFF7BAFC386108E026
:101F7C00FFF7B6FC02463B69D31A642B01D9032345
:101F8C00E6E1534B1B6803F40033002BF0D100E067
:101F9C0000BF7B681B6803F00203002B63D04C4B23
:101FAC005B6803F00C03002B0BD0494B5B6803F010
:101FBC000C03082B1CD1464B5B6803F48033002BBD
:101FCC0016D1434B1B6803F00203002B05D07B6832
:101FDC001B69012B01D00123BAE13D4B1B6823F097
:101FEC00F8027B685B69DB00394913430B603AE00C
:101FFC007B681B69002B20D0364B01221A60FFF73F
:10200C006FFC386108E0FFF76BFC02463B69D31AA2
:10201C00022B01D903239BE12D4B1B6803F0020318
:10202C00002BF0D02A4B1B6823F0F8027B685B690D
:10203C00DB00274913430B6015E0264B00221A6086
:10204C00FFF74EFC386108E0FFF74AFC02463B699B
:10205C00D31A022B01D903237AE11D4B1B6803F021
:10206C000203002BF0D17B681B6803F00803002BE4
:10207C003AD07B689B69002B19D0174B01221A6050
:10208C00FFF72EFC386108E0FFF72AFC02463B699B
:10209C00D31A022B01D903235AE10D4B5B6A03F0CF
:1020AC000203002BF0D0012000F0A6FA1CE00A4B32
:1020BC0000221A60FFF714FC38610FE0FFF710FCE8
:1020CC0002463B69D31A022B08D9032340E100BF17
:1020DC000010024000004242800442429E4B5B6A68
:1020EC0003F00203002BE9D17B681B6803F00403A7
:1020FC00002B00F0A6800023FB75974BDB6903F0E7
:10210C008053002B0DD1944BDB69934A43F08053E1
:10211C00D361914BDB6903F08053BB60BB68012337
:10212C00FB758E4B1B6803F48073002B18D18B4B03
:10213C001B688A4A43F480731360FFF7D1FB386144
:10214C0008E0FFF7CDFB02463B69D31A642B01D99B
:10215C000323FDE0814B1B6803F48073002BF0D04C
:10216C007B68DB68012B06D17B4B1B6A7A4A43F0F8
:10217C00010313622DE07B68DB68002B0CD1764BDE
:10218C001B6A754A23F001031362734B1B6A724A74
:10219C0023F0040313621CE07B68DB68052B0CD175
:1021AC006D4B1B6A6C4A43F0040313626A4B1B6A47
:1021BC00694A43F0010313620BE0674B1B6A664AE2
:1021CC0023F001031362644B1B6A634A23F004037C
:1021DC0013627B68DB68002B15D0FFF781FB38613D
:1021EC000AE0FFF77DFB02463B69D31A41F28832C5
:1021FC00934201D90323ABE0574B1B6A03F0020354
:10220C00002BEED014E0FFF76BFB38610AE0FFF710
:10221C0067FB02463B69D31A41F28832934201D9DB
:10222C00032395E04C4B1B6A03F00203002BEED109
:10223C00FB7D012B05D1484BDB69474A23F08053CA
:10224C00D3617B68DB69002B00F08180424B5B68BB
:10225C0003F00C03082B61D07B68DB69022B46D1A1
:10226C003F4B00221A60FFF73BFB386108E0FFF799
:10227C0037FB02463B69D31A022B01D9032367E0D3
:10228C00354B1B6803F00073002BF0D17B681B6A85
:10229C00B3F5803F08D1304B5B6823F400327B6888
:1022AC009B682D4913434B602B4B5B6823F47412D2
:1022BC007B68196A7B685B6A0B43274913434B6045
:1022CC00274B01221A60FFF70BFB386108E0FFF780
:1022DC0007FB02463B69D31A022B01D9032337E0D3
:1022EC001D4B1B6803F00073002BF0D02FE01C4B30
:1022FC0000221A60FFF7F4FA386108E0FFF7F0FAF1
:10230C0002463B69D31A022B01D9032320E0124B5E
:10231C001B6803F00073002BF0D118E07B68DB69BD
:10232C00012B01D1012313E00B4B5B68FB60FB68B5
:10233C0003F480327B681B6A9A4206D1FB6803F473
:10234C0070127B685B6A9A4201D0012300E0002383
:10235C0018461837BD4680BD001002400070004082
:10236C006000424280B584B000AF786039607B6811
:10237C00002B01D10123D0E06A4B1B6803F007034B
:10238C003A689A4210D9674B1B6823F007026549DB
:10239C003B6813430B60634B1B6803F007033A68FD
:1023AC009A4201D00123B8E07B681B6803F002035A
:1023BC00002B20D07B681B6803F00403002B05D096
:1023CC00594B5B68584A43F4E06353607B681B6865
:1023DC0003F00803002B05D0534B5B68524A43F4BF
:1023EC0060535360504B5B6823F0F0027B689B6832
:1023FC004D4913434B607B681B6803F00103002BB2
:10240C0040D07B685B68012B07D1474B1B6803F4FA
:10241C000033002B15D101237FE07B685B68022B16
:10242C0007D1414B1B6803F00073002B09D101232A
:10243C0073E03D4B1B6803F00203002B01D1012319
:10244C006BE0394B5B6823F003027B685B683649B1
:10245C0013434B60FFF744FAF8600AE0FFF740FAC9
:10246C000246FB68D31A41F28832934201D9032306
:10247C0053E02D4B5B6803F00C027B685B689B00A0
:10248C009A42EBD1274B1B6803F007033A689A4238
:10249C0010D2244B1B6823F0070222493B681343DC
:1024AC000B60204B1B6803F007033A689A4201D07B
:1024BC00012332E07B681B6803F00403002B08D077
:1024CC00194B5B6823F4E0627B68DB6816491343A5
:1024DC004B607B681B6803F00803002B09D0124B80
:1024EC005B6823F460527B681B69DB000E49134365
:1024FC004B6000F021F802460B4B5B681B0903F0A4
:10250C000F030A49CB5C22FA03F3094A1360094B07
:10251C001B681846FFF7A2F9002318461037BD4672
:10252C0080BD00BF0020024000100240882E000831
:10253C00340000203C00002090B48AB000AF2A4B3D
:10254C003C1D0FCB84E80F0040F201233B8000239D
:10255C00FB610023BB6100237B6200237B610023B2
:10256C003B62224B5B68FB61FB6903F00C03042BA1
:10257C0002D0082B03D02DE01D4B3B622DE0FB69F4
:10258C009B0C03F00F0307F12802134413F8243CAF
:10259C007B61FB6903F48033002B13D0134B5B6816
:1025AC005B0C03F0010307F12802134413F8283CD9
:1025BC00BB617B690E4A02FB03F2BB69B2FBF3F30E
:1025CC007B6204E07B690B4A02FB03F37B627B6A50
:1025DC003B6202E0064B3B6200BF3B6A1846283761
:1025EC00BD4690BC704700BF782E0008001002401A
:1025FC0000127A0000093D0080B485B000AF78600D
:10260C000A4B1B680A4AA2FB03235B0A7A6802FB8B
:10261C0003F3FB6000BFFB685A1EFA60002BF9D174
:10262C0000BF00BF1437BD4680BC7047340000208B
:10263C00D34D621080B582B000AF78607B68002B00
:10264C0001D1012341E07B6893F83D30DBB2002BD4
:10265C0006D17B68002283F83C207868FEF754FE94
:10266C007B68022283F83D207B681A687B68043300
:10267C001946104600F06AFA7B68012283F846205E
:10268C007B68012283F83E207B68012283F83F207F
:10269C007B68012283F840207B68012283F841206B
:1026AC007B68012283F842207B68012283F8432057
:1026BC007B68012283F844207B68012283F8452043
:1026CC007B68012283F83D20002318460837BD465D
:1026DC0080BD000080B485B000AF78607B6893F853
:1026EC003D30DBB2012B01D0012335E07B680222A7
:1026FC0083F83D207B681B68DA687B681B6842F0B6
:10270C000102DA607B681B68164A934209D07B6829
:10271C001B68B3F1804F04D07B681B68124A93424C
:10272C0011D17B681B689B6803F00703FB60FB6897
:10273C00062B10D07B681B681A687B681B6842F0FC
:10274C0001021A6007E07B681B681A687B681B68CB
:10275C0042F001021A60002318461437BD4680BCB3
:10276C00704700BF002C01400004004080B582B0CF
:10277C0000AF78607B681B681B6903F00203022BB7
:10278C0022D17B681B68DB6803F00203022B1BD190
:10279C007B681B686FF002021A617B6801221A7752
:1027AC007B681B689B6903F00303002B03D07868DC
:1027BC0000F0B1F905E0786800F0A4F9786800F051
:1027CC00B3F97B6800221A777B681B681B6903F0DE
:1027DC000403042B22D17B681B68DB6803F0040321
:1027EC00042B1BD17B681B686FF004021A617B6899
:1027FC0002221A777B681B689B6903F44073002BD9
:10280C0003D0786800F087F905E0786800F07AF971
:10281C00786800F089F97B6800221A777B681B685E
:10282C001B6903F00803082B22D17B681B68DB684B
:10283C0003F00803082B1BD17B681B686FF00802A0
:10284C001A617B6804221A777B681B68DB6903F0CA
:10285C000303002B03D0786800F05DF905E078687D
:10286C0000F050F9786800F05FF97B6800221A7765
:10287C007B681B681B6903F01003102B22D17B684B
:10288C001B68DB6803F01003102B1BD17B681B68E3
:10289C006FF010021A617B6808221A777B681B683C
:1028AC00DB6903F44073002B03D0786800F033F934
:1028BC0005E0786800F026F9786800F035F97B6857
:1028CC0000221A777B681B681B6903F00103012B3C
:1028DC000ED17B681B68DB6803F00103012B07D169
:1028EC007B681B686FF001021A617868FEF742FC86
:1028FC007B681B681B6903F08003802B0ED17B68FF
:10290C001B68DB6803F08003802B07D17B681B6896
:10291C006FF080021A61786800F067FA7B681B68B8
:10292C001B6903F04003402B0ED17B681B68DB68EE
:10293C0003F04003402B07D17B681B686FF040020B
:10294C001A61786800F0F9F87B681B681B6903F062
:10295C002003202B0ED17B681B68DB6803F020035F
:10296C00202B07D17B681B686FF020021A617868F6
:10297C0000F032FA00BF0837BD4680BD80B584B088
:10298C0000AF786039607B6893F83C30012B01D143
:10299C000223B3E07B68012283F83C207B6802228F
:1029AC0083F83D207B681B689B68FB60FB6823F009
:1029BC007703FB60FB6823F47F43FB607B681B6839
:1029CC00FA689A603B681B68B3F5005F3ED0B3F5BC
:1029DC00005F00F28780B3F5805F00F08580B3F56F
:1029EC00805F7FD8702B1AD0702B7BD8602B50D087
:1029FC00602B77D8502B3CD0502B73D8402B58D011
:102A0C00402B6FD8302B64D0302B6BD8202B60D060
:102A1C00202B67D8002B5CD0102B5AD062E07B683F
:102A2C0018683B6899683B685A683B68DB6800F03B
:102A3C005CF97B681B689B68FB60FB6843F0770361
:102A4C00FB607B681B68FA689A604EE07B681868CC
:102A5C003B6899683B685A683B68DB6800F045F94D
:102A6C007B681B689A687B681B6842F480429A609A
:102A7C003BE07B6818683B6859683B68DB681A4622
:102A8C0000F0BCF87B681B685021184600F013F965
:102A9C002BE07B6818683B6859683B68DB681A4612
:102AAC0000F0DAF87B681B686021184600F003F927
:102ABC001BE07B6818683B6859683B68DB681A4602
:102ACC0000F09CF87B681B684021184600F0F3F876
:102ADC000BE07B681A683B681B681946104600F0CF
:102AEC00EAF802E000BF00E000BF7B68012283F837
:102AFC003D207B68002283F83C20002318461037C9
:102B0C00BD4680BD80B483B000AF786000BF0C3789
:102B1C00BD4680BC704780B483B000AF786000BF06
:102B2C000C37BD4680BC704780B483B000AF786072
:102B3C0000BF0C37BD4680BC704780B483B000AF7B
:102B4C00786000BF0C37BD4680BC704780B485B040
:102B5C0000AF786039607B681B68FB607B68254A36
:102B6C00934207D07B68B3F1804F03D07B68224A35
:102B7C00934208D1FB6823F07003FB603B685B68F1
:102B8C00FA681343FB607B681A4A934207D07B6850
:102B9C00B3F1804F03D07B68174A934208D1FB688E
:102BAC0023F44073FB603B68DB68FA681343FB60FB
:102BBC00FB6823F080023B685B691343FB607B6816
:102BCC00FA681A603B689A687B68DA623B681A6834
:102BDC007B689A627B68074A934203D13B681A6907
:102BEC007B681A637B6801225A6100BF1437BD46AB
:102BFC0080BC7047002C01400004004080B487B0BA
:102C0C0000AFF860B9607A60FB681B6A7B61FB6897
:102C1C001B6A23F00102FB681A62FB689B693B612B
:102C2C003B6923F0F0033B617B681B013A6913435A
:102C3C003B617B6923F00A037B617A69BB681343B0
:102C4C007B61FB683A699A61FB687A691A6200BF1A
:102C5C001C37BD4680BC704780B487B000AFF860AD
:102C6C00B9607A60FB681B6A23F01002FB681A6279
:102C7C00FB689B697B61FB681B6A3B617B6923F486
:102C8C0070437B617B681B037A6913437B613B69EF
:102C9C0023F0A0033B61BB681B013A6913433B6102
:102CAC00FB687A699A61FB683A691A6200BF1C3743
:102CBC00BD4680BC704780B485B000AF7860396089
:102CCC007B689B68FB60FB6823F07003FB603A68D1
:102CDC00FB68134343F00703FB607B68FA689A6058
:102CEC0000BF1437BD4680BC704780B487B000AFBE
:102CFC00F860B9607A603B60FB689B687B617B69BC
:102D0C0023F47F437B613B681A027B681A43BB68E0
:102D1C0013437A6913437B61FB687A699A6000BF3D
:102D2C001C37BD4680BC704780B485B000AF78605E
:102D3C0039607B6893F83C30012B01D1022341E0D0
:102D4C007B68012283F83C207B68022283F83D20BB
:102D5C007B681B685B68FB607B681B689B68BB605F
:102D6C00FB6823F07003FB603B681B68FA68134335
:102D7C00FB607B681B68FA685A607B681B68144AA6
:102D8C00934209D07B681B68B3F1804F04D07B68F9
:102D9C001B68104A93420CD1BB6823F08003BB60C4
:102DAC003B685B68BA681343BB607B681B68BA6896
:102DBC009A607B68012283F83D207B68002283F8AF
:102DCC003C20002318461437BD4680BC704700BF1A
:102DDC00002C01400004004080B483B000AF786048
:102DEC0000BF0C37BD4680BC704780B483B000AFC9
:102DFC00786000BF0C37BD4680BC704770B50026AC
:102E0C000C4D0D4C641BA410A64209D100F022F805
:102E1C0000260A4D0A4C641BA410A64205D170BDB5
:102E2C0055F8043B98470136EEE755F8043B9847B4
:102E3C000136F2E7982E0008982E0008982E00080C
:102E4C009C2E000803460244934200D1704703F8BD
:102E5C00011BF9E7F8B500BFF8BC08BC9E467047EB
:0C2E6C00F8B500BFF8BC08BC9E467047DB
:102E780002030405060708090A0B0C0D0E0F1010B3
:102E88000000000000000000010203040607080912
:042E980031010008FC
:042E9C000D0100081C
:102EA000010000000100000001000000010000001E
:102EB000010000000100000001000000010000000E
:102EC00001000000010000000100000001000000FE
:102ED000C80000000024F4000000003F10000000C3
:042EE00001000000ED
:04000005080017F1E7
:00000001FF
