:020000040800F2
:1000000000280020A51F0008011B0008071B00088E
:100010000D1B0008131B0008191B0008000000003E
:100020000000000000000000000000001F1B00088E
:100030002B1B000800000000371B0008431B0008B2
:10004000ED1F0008ED1F0008ED1F0008ED1F000860
:10005000ED1F0008ED1F0008ED1F0008ED1F000850
:10006000ED1F0008ED1F0008ED1F0008ED1F000840
:10007000ED1F0008ED1F0008ED1F0008ED1F000830
:10008000ED1F0008ED1F0008ED1F0008ED1F000820
:10009000ED1F0008ED1F0008ED1F0008ED1F000810
:1000A000ED1F0008ED1F0008ED1F0008ED1F000800
:1000B000511B0008ED1F000800000000ED1F0008A4
:1000C000ED1F00080000000000000000ED1F000808
:1000D00000000000ED1F0008ED1F000800000000F8
:1000E000ED1F0008ED1F0008ED1F000800000000D4
:1000F0000000000000000000000000000000000000
:0C01000000000000000000005FF808F1A3
:10010C0010B5054C237833B9044B13B10448AFF345
:10011C0000800123237010BD44000020000000006B
:10012C001436000808B5034B1BB103490348AFF361
:10013C00008008BD000000004800002014360008B4
:10014C004FF0FF0C1CEAD0521EBF1CEAD15392EAAE
:10015C000C0F93EA0C0F6FD01A4480EA010C40028A
:10016C0018BF5FEA41211ED04FF0006343EA5010E4
:10017C0043EA5111A0FB01310CF00040B1F5000F26
:10018C003EBF490041EAD3715B0040EA010062F1D5
:10019C007F02FD2A1DD8B3F1004F40EBC25008BFBF
:1001AC0020F00100704790F0000F0CF0004C08BFDD
:1001BC0049024CEA502040EA51207F3AC2BFD2F1AA
:1001CC00FF0340EAC250704740F400004FF00003B8
:1001DC00013A5DDC12F1190FDCBF00F000407047F2
:1001EC00C2F10002410021FA02F1C2F1200200FA30
:1001FC0002FC5FEA310040F1000053EA4C0308BFF7
:10020C0020EADC70704792F0000F00F0004C02BF47
:10021C00400010F4000F013AF9D040EA0C0093F0C2
:10022C00000F01F0004C02BF490011F4000F013B1C
:10023C00F9D041EA0C018FE70CEAD15392EA0C0F8A
:10024C0018BF93EA0C0F0AD030F0004C18BF31F0F5
:10025C00004CD8D180EA010000F00040704790F0CB
:10026C00000F17BF90F0004F084691F0000F91F06F
:10027C00004F14D092EA0C0F01D142020FD193EA35
:10028C000C0F03D14B0218BF084608D180EA0100BD
:10029C0000F0004040F0FE4040F40000704740F099
:1002AC00FE4040F44000704780F0004002E000BF88
:1002BC0081F0004142001FBF5FEA410392EA030F45
:1002CC007FEA226C7FEA236C6AD04FEA1262D2EB8F
:1002DC001363C1BFD218414048404140B8BF5B4294
:1002EC00192B88BF704710F0004F40F4000020F02D
:1002FC007F4018BF404211F0004F41F4000121F043
:10030C007F4118BF494292EA030F3FD0A2F101028C
:10031C0041FA03FC10EB0C00C3F1200301FA03F1CA
:10032C0000F0004302D5494260EB4000B0F5000FED
:10033C0013D3B0F1807F06D340084FEA310102F1AC
:10034C000102FE2A51D2B1F1004F40EBC25008BF5E
:10035C0020F0010040EA03007047490040EB000028
:10036C00013A28BFB0F5000FEDD2B0FA80FCACF129
:10037C00080CB2EB0C0200FA0CF0AABF00EBC25056
:10038C0052421843BCBFD0401843704792F0000F44
:10039C0081F4000106BF80F400000132013BB5E797
:1003AC004FEA41037FEA226C18BF7FEA236C21D00D
:1003BC0092EA030F04D092F0000F08BF0846704772
:1003CC0090EA010F1CBF0020704712F07F4F04D140
:1003DC00400028BF40F00040704712F100723CBF53
:1003EC0000F50000704700F0004343F0FE4040F47D
:1003FC00000070477FEA226216BF08467FEA23633B
:10040C000146420206BF5FEA412390EA010F40F425
:10041C00800070474FF0000304E000BF10F0004371
:10042C0048BF40425FEA000C08BF704743F0964358
:10043C0001464FF000001CE050EA010208BF704773
:10044C004FF000030AE000BF50EA010208BF7047FA
:10045C0011F0004302D5404261EB41015FEA010C0F
:10046C0002BF84460146002043F0B64308BFA3F107
:10047C008053A3F50003BCFA8CF2083AA3EBC253E9
:10048C0010DB01FA02FC634400FA02FCC2F1200208
:10049C00BCF1004F20FA02F243EB020008BF20F03F
:1004AC000100704702F1200201FA02FCC2F12002A5
:1004BC0050EA4C0021FA02F243EB020008BF20EA9A
:1004CC00DC7070474FEA4002B2F1FE4F0FD34FF091
:1004DC009E03B3EB12620DD94FEA002343F00043A5
:1004EC0010F0004F23FA02F018BF404270474FF053
:1004FC000000704712F1610F01D1420205D110F0DA
:10050C00004008BF6FF0004070474FF0000070478C
:10051C0080B400AF034B01221A6000BFBD4680BC03
:10052C00704700BF6000002080B400AF064B1B6812
:10053C00012B04D1044B00221A60012300E000239C
:10054C001846BD4680BC70476000002080B400AFE8
:10055C00034B01221A6000BFBD4680BC704700BF30
:10056C006400002080B400AF064B1B68012B04D143
:10057C00044B00221A60012300E000231846BD46FC
:10058C0080BC70476400002080B400AF034B012294
:10059C001A6000BFBD4680BC704700BF68000020D9
:1005AC0080B400AF064B1B68012B04D1044B002216
:1005BC001A60012300E000231846BD4680BC70473A
:1005CC006800002080B500AF5C4B1B685C4A136070
:1005DC005C4B1B68594A13604FF400515A4801F0A8
:1005EC00EBFF03461A46574B1A60554B1A68534B90
:1005FC001B689A4225D1514B1A68524B1B689A4280
:10060C001FD1524B1A684F4B1B689A420DD04D4B61
:10061C001B684E4A13604B4B1B68002B11D1FFF724
:10062C0077FF4B4BC8221A600BE0494B1B68013B10
:10063C00474A1360464B1B68002B02D1434B0122E7
:10064C001A60444B1B68444A1360444B1B68414A74
:10065C0013604FF480413C4801F0AEFF03461A464C
:10066C003E4B1A603C4B1A683A4B1B689A4225D198
:10067C00384B1A68394B1B689A421FD1384B1A6891
:10068C00364B1B689A420DD0344B1B68344A1360AE
:10069C00324B1B68002B11D1FFF758FF2C4BC82293
:1006AC001A600BE02A4B1B68013B294A1360284B4C
:1006BC001B68002B02D12A4B01221A60294B1B68A4
:1006CC00294A1360294B1B68264A13604FF40041DA
:1006DC001D4801F071FF03461A46244B1A60224B49
:1006EC001A68204B1B689A4225D1204B1A681D4B67
:1006FC001B689A421FD11E4B1A681C4B1B689A42EE
:10070C000DD01A4B1B681A4A1360184B1B68002B30
:10071C0011D1FFF739FF0E4BC8221A600BE00C4BBE
:10072C001B68013B0A4A1360094B1B68002B02D162
:10073C000F4B01221A6000BF80BD00BF04000020D7
:10074C000000002008000020001001400C000020D8
:10075C0030000020140000201000002018000020A1
:10076C001C00002024000020200000202800002075
:10077C002C00002080B500AF01220221074801F0B7
:10078C0032FF01220421054801F02DFF012208212E
:10079C00024801F028FF00BF80BD00BF00080140E7
:1007AC0080B500AF00220221074801F01CFF002297
:1007BC000421054801F017FF00220821024801F02E
:1007CC0012FF00BF80BD00BF0008014080B500AF24
:1007DC0000220221074801F006FF012204210548EE
:1007EC0001F001FF01220821024801F0FCFE00BFCC
:1007FC0080BD00BF0008014080B500AF012202217E
:10080C00074801F0F0FE01220421054801F0EBFE3F
:10081C0000220821024801F0E6FE00BF80BD00BFA7
:10082C000008014080B500AF01220221074801F009
:10083C00DAFE00220421054801F0D5FE0122082130
:10084C00024801F0D0FE00BF80BD00BF000801408F
:10085C0080B582B000AF78607B68092B00F29E8176
:10086C0001A252F823F000BF9D080008EB08000815
:10087C003909000887090008D5090008230A00086F
:10088C00710A0008BF0A00080D0B00085B0B00087A
:10089C0000221021C44801F0A6FE00222021C248EB
:1008AC0001F0A1FE00224021BF4801F09CFE002275
:1008BC008021BD4801F097FE00224FF48071BA48A8
:1008CC0001F091FE00224FF40071B74801F08BFE4D
:1008DC0001224FF48061B44801F085FE5FE10122F2
:1008EC001021B14801F07FFE00222021AE4801F01A
:1008FC007AFE00224021AC4801F075FE01228021D5
:10090C00A94801F070FE01224FF48071A64801F055
:10091C006AFE01224FF40071A34801F064FE01222B
:10092C004FF48061A04801F05EFE38E100221021F6
:10093C009D4801F058FE002220219B4801F053FEF7
:10094C0001224021984801F04EFE00228021964859
:10095C0001F049FE00224FF48071934801F043FEF0
:10096C0001224FF40071904801F03DFE00224FF43B
:10097C0080618D4801F037FE11E1002210218A4878
:10098C0001F031FE00222021874801F02CFE0022CC
:10099C004021854801F027FE00228021824801F089
:1009AC0022FE01224FF480717F4801F01CFE0122CF
:1009BC004FF400717C4801F016FE00224FF4806168
:1009CC00794801F010FEEAE001221021764801F08E
:1009DC000AFE00222021744801F005FE002240216D
:1009EC00714801F000FE012280216F4801F0FBFDEF
:1009FC0001224FF480716C4801F0F5FD00224FF498
:100A0C000071694801F0EFFD00224FF480616648E7
:100A1C0001F0E9FDC3E000221021634801F0E3FD81
:100A2C0001222021604801F0DEFD002240215E48B9
:100A3C0001F0D9FD002280215B4801F0D4FD012298
:100A4C004FF48071584801F0CEFD00224FF4007134
:100A5C00554801F0C8FD00224FF48061524801F066
:100A6C00C2FD9CE0002210214F4801F0BCFD012288
:100A7C0020214D4801F0B7FD002240214A4801F0E9
:100A8C00B2FD00228021484801F0ADFD00224FF458
:100A9C008071454801F0A7FD00224FF400714248D7
:100AAC0001F0A1FD00224FF480613F4801F09BFD55
:100ABC0075E0002210213C4801F095FD0022202118
:100ACC00394801F090FD00224021374801F08BFDA0
:100ADC0001228021344801F086FD01224FF48071FF
:100AEC00314801F080FD01224FF400712E4801F0D5
:100AFC007AFD01224FF480612B4801F074FD4EE029
:100B0C0000221021284801F06EFD002220212648E9
:100B1C0001F069FD00224021234801F064FD002210
:100B2C008021214801F05FFD00224FF480711E48A6
:100B3C0001F059FD00224FF400711B4801F053FDE8
:100B4C0000224FF48061184801F04DFD27E000228F
:100B5C001021154801F047FD00222021124801F018
:100B6C0042FD00224021104801F03DFD0022802171
:100B7C000D4801F038FD01224FF480710A4801F054
:100B8C0032FD00224FF40071074801F02CFD0022C9
:100B9C004FF48061044801F026FD00E000BF00BF67
:100BAC000837BD4680BD00BF0008014080B582B04B
:100BBC0000AF78607B68092B00F2B28101A252F879
:100BCC0023F000BFF90B00084B0C00089D0C00082B
:100BDC00EF0C0008410D0008930D0008E50D00080E
:100BEC00370E0008890E0008DB0E000800224FF4B7
:100BFC000061CE4801F0F7FC00224FF48051CB4845
:100C0C0001F0F1FC00224FF40051C84801F0EBFC5C
:100C1C0000224FF48041C54801F0E5FC00224FF45E
:100C2C000041C24801F0DFFC00220121C04801F064
:100C3C00DAFC01220221BE4801F0D5FC71E101224F
:100C4C004FF40061B94801F0CEFC00224FF4805102
:100C5C00B64801F0C8FC00224FF40051B34801F033
:100C6C00C2FC01224FF48041B04801F0BCFC0122CF
:100C7C004FF40041AD4801F0B6FC01220121AC4813
:100C8C0001F0B1FC01220221A94801F0ACFC48E1C1
:100C9C0000224FF40061A54801F0A5FC00224FF49E
:100CAC008051A24801F09FFC01224FF400519F4853
:100CBC0001F099FC00224FF480419C4801F093FC18
:100CCC0000224FF40041994801F08DFC01220121D2
:100CDC00974801F088FC00220221954801F083FC22
:100CEC001FE100224FF40061904801F07CFC0022CF
:100CFC004FF480518D4801F076FC00224FF40051E6
:100D0C008A4801F070FC00224FF48041874801F0C2
:100D1C006AFC01224FF40041844801F064FC01227A
:100D2C000121834801F05FFC00220221804801F080
:100D3C005AFCF6E001224FF400617C4801F053FCB0
:100D4C0000224FF48051794801F04DFC00224FF401
:100D5C000051764801F047FC01224FF48041734862
:100D6C0001F041FC01224FF40041704801F03BFCC2
:100D7C00002201216E4801F036FC002202216C4851
:100D8C0001F031FCCDE000224FF40061674801F026
:100D9C002AFC01224FF48051644801F024FC00220B
:100DAC004FF40051614801F01EFC00224FF48041C9
:100DBC005E4801F018FC01224FF400415B4801F041
:100DCC0012FC002201215A4801F00DFC00220221E4
:100DDC00574801F008FCA4E000224FF4006153488E
:100DEC0001F001FC01224FF48051504801F0FBFB53
:100DFC0000224FF400514D4801F0F5FB00224FF456
:100E0C0080414A4801F0EFFB00224FF40041474873
:100E1C0001F0E9FB00220121454801F0E4FB00222E
:100E2C000221434801F0DFFB7BE000224FF400611C
:100E3C003E4801F0D8FB00224FF480513B4801F0B2
:100E4C00D2FB00224FF40051384801F0CCFB0122B8
:100E5C004FF48041354801F0C6FB01224FF40041AC
:100E6C00324801F0C0FB01220121314801F0BBFBEB
:100E7C00012202212E4801F0B6FB52E000224FF471
:100E8C0000612A4801F0AFFB00224FF48051274843
:100E9C0001F0A9FB00224FF40051244801F0A3FB00
:100EAC0000224FF48041214801F09DFB00224FF4B9
:100EBC0000411E4801F097FB002201211C4801F063
:100ECC0092FB002202211A4801F08DFB29E000223E
:100EDC004FF40061154801F086FB00224FF480515D
:100EEC00124801F080FB00224FF400510F4801F032
:100EFC007AFB00224FF480410C4801F074FB012274
:100F0C004FF40041094801F06EFB00220121084812
:100F1C0001F069FB00220221054801F064FB00E0AE
:100F2C0000BF00BF0837BD4680BD00BF00080140B0
:100F3C00000C014080B582B000AF78607B68092B53
:100F4C0000F28A8101A252F823F000BF810F000841
:100F5C00CB0F0008151000085F100008A91000083E
:100F6C00F31000083D11000887110008D11100088A
:100F7C001B12000800220421BA4801F034FB0022A5
:100F8C000821B84801F02FFB00221021B54801F0D0
:100F9C002AFB00222021B34801F025FB002240212E
:100FAC00B04801F020FB00228021AE4801F01BFB71
:100FBC0001224FF48071AB4801F015FB4DE1012289
:100FCC000421A84801F00FFB00220821A54801F0DC
:100FDC000AFB00221021A34801F005FB012220216D
:100FEC00A04801F000FB012240219E4801F0FBFAD1
:100FFC00012280219B4801F0F6FA01224FF4807106
:10100C00984801F0F0FA28E100220421954801F0FB
:10101C00EAFA00220821934801F0E5FA0122102196
:10102C00904801F0E0FA002220218E4801F0DBFA12
:10103C00002240218B4801F0D6FA012280218948F8
:10104C0001F0D1FA00224FF48071864801F0CBFAFE
:10105C0003E100220421834801F0C5FA0022082193
:10106C00804801F0C0FA002210217E4801F0BBFA42
:10107C00002220217B4801F0B6FA01224021794858
:10108C0001F0B1FA01228021764801F0ACFA00227D
:10109C004FF48071734801F0A6FADEE001220421BE
:1010AC00704801F0A0FA002208216E4801F09BFA6A
:1010BC00002210216B4801F096FA01222021694888
:1010CC0001F091FA01224021664801F08CFA0022CD
:1010DC008021644801F087FA00224FF48071614846
:1010EC0001F081FAB9E0002204215E4801F07BFA9C
:1010FC00012208215B4801F076FA002210215948A0
:10110C0001F071FA00222021564801F06CFA0122FC
:10111C004021544801F067FA00228021514801F027
:10112C0062FA00224FF480714E4801F05CFA94E0B0
:10113C00002204214B4801F056FA012208214948AB
:10114C0001F051FA00221021464801F04CFA00221D
:10115C002021444801F047FA00224021414801F087
:10116C0042FA002280213F4801F03DFA00224FF460
:10117C0080713C4801F037FA6FE0002204213948B5
:10118C0001F031FA00220821364801F02CFA002235
:10119C001021344801F027FA01222021314801F0B6
:1011AC0022FA012240212F4801F01DFA0122802150
:1011BC002C4801F018FA01224FF48071294801F0F3
:1011CC0012FA4AE000220421264801F00CFA00220F
:1011DC000821244801F007FA00221021214801F0CF
:1011EC0002FA002220211F4801F0FDF900224021C3
:1011FC001C4801F0F8F9002280211A4801F0F3F99B
:10120C0000224FF48071174801F0EDF925E000221F
:10121C000421144801F0E7F900220821114801F0DB
:10122C00E2F9002210210F4801F0DDF90022202103
:10123C000C4801F0D8F9012240210A4801F0D3F9F9
:10124C0000228021074801F0CEF900224FF4807172
:10125C00044801F0C8F900E000BF00BF0837BD46E4
:10126C0080BD00BF000C014080B582B000AF78603B
:10127C007B68092B00F2C88101A252F823F000BF51
:10128C00B51200080B13000861130008B71300080F
:10129C000D14000863140008B91400080F15000899
:1012AC0065150008BB15000800224FF40071D548E5
:1012BC0001F099F900224FF48061D24801F093F9C2
:1012CC0000224FF40061CF4801F08DF900224FF459
:1012DC008051CC4801F087F900224FF40051C948E5
:1012EC0001F081F900224FF48041C64801F07BF9EE
:1012FC0001224FF40041C34801F075F985E1012248
:10130C004FF40071BF4801F06EF900224FF4806178
:10131C00BC4801F068F900224FF40061B94801F0B3
:10132C0062F901224FF48051B64801F05CF90122B8
:10133C004FF40051B34801F056F901224FF48041AB
:10134C00B04801F050F901224FF40041AD4801F0D2
:10135C004AF95AE100224FF40071AA4801F043F90E
:10136C0000224FF48061A74801F03DF901224FF4AF
:10137C000061A44801F037F900224FF48051A148D4
:10138C0001F031F900224FF400519E4801F02BF985
:10139C0001224FF480419B4801F025F900224FF4C3
:1013AC000041984801F01FF92FE100224FF4007121
:1013BC00944801F018F900224FF48061914801F033
:1013CC0012F900224FF400618E4801F00CF9002252
:1013DC004FF480518B4801F006F901224FF4005173
:1013EC00884801F000F901224FF48041854801F052
:1013FC00FAF800224FF40041824801F0F4F804E1BD
:10140C0001224FF400717F4801F0EDF800224FF4F7
:10141C0080617C4801F0E7F800224FF400617948C4
:10142C0001F0E1F801224FF48051764801F0DBF82D
:10143C0001224FF40051734801F0D5F800224FF40B
:10144C008041704801F0CFF800224FF400416D4804
:10145C0001F0C9F8D9E000224FF40071694801F09D
:10146C00C2F801224FF48061664801F0BCF80022FA
:10147C004FF40061634801F0B6F800224FF480513C
:10148C00604801F0B0F801224FF400515D4801F0C2
:10149C00AAF800224FF480415A4801F0A4F8002227
:1014AC004FF40041574801F09EF8AEE000224FF493
:1014BC000071544801F097F801224FF480615148B3
:1014CC0001F091F800224FF400614E4801F08BF8C6
:1014DC0000224FF480514B4801F085F800224FF464
:1014EC000051484801F07FF800224FF480414548F4
:1014FC0001F079F800224FF40041424801F073F8F2
:10150C0083E000224FF400713E4801F06CF8002299
:10151C004FF480613B4801F066F800224FF4006103
:10152C00384801F060F801224FF48051354801F041
:10153C005AF801224FF40051324801F054F80122BC
:10154C004FF480412F4801F04EF801224FF4004136
:10155C002C4801F048F858E000224FF4007129485B
:10156C0001F041F800224FF48061264801F03BF86D
:10157C0000224FF40061234801F035F800224FF4AB
:10158C008051204801F02FF800224FF400511D48E3
:10159C0001F029F800224FF480411A4801F023F899
:1015AC0000224FF40041174801F01DF82DE00022F5
:1015BC004FF40071134801F016F800224FF48061CB
:1015CC00104801F010F800224FF400610D4801F0B2
:1015DC000AF800224FF480510A4801F004F8012265
:1015EC004FF40051074800F0FEFF00224FF48041F9
:1015FC00044800F0F8FF00224FF40041014800F0CD
:10160C00F2FF02E0000C014000BF00BF0837BD46EE
:10161C0080BD00BF80B500AF464B1B68042B7CD847
:10162C0001A252F823F000BF4916000887160008E3
:10163C00B3160008DF1600080B170008FFF7B0F808
:10164C000820FFF705F90820FFF7B0FA0820FFF78C
:10165C0071FC0820FFF708FEFEF766FF0346012B1E
:10166C005DD1344B01221A60334B4FF07C521A601F
:10167C004FF4FA7000F08AF951E000F073FAFEF7BB
:10168C0053FF0346012B4CD12A4B02221A602A4BE2
:10169C004FF07C521A60294B00221A604FF4FA70FA
:1016AC0000F074F93DE000F033FBFEF73DFF03461C
:1016BC00012B38D11F4B03221A601F4B4FF07C5269
:1016CC001A601E4B00221A604FF4FA7000F05EF99B
:1016DC0029E000F089FBFEF727FF0346012B24D1FC
:1016EC00144B04221A60144B4FF07C521A60134BAB
:1016FC0000221A604FF4FA7000F048F915E000F07F
:10170C00DFFBFEF711FF0346012B10D1094B012221
:10171C001A600B4B00221A6009E000BF08E000BF02
:10172C0006E000BF04E000BF02E000BF00E000BF25
:10173C0000BF80BD6C00002038000020800000201D
:10174C008400002080B500AF00F04CFC00F012F8D3
:10175C0000F098F800F04AF8044801F095FB044BAF
:10176C0000221A60FFF756FFFCE700BF880000203C
:10177C006C00002080B590B000AF07F11803282250
:10178C000021184601F038FF3B1D00221A605A60F8
:10179C009A60DA601A610223BB610123BB621023D9
:1017AC00FB6200237B6307F11803184600F034FF3B
:1017BC000346002B01D000F0E3F80F237B600023DD
:1017CC00BB600023FB6000233B6100237B613B1D5E
:1017DC000021184601F0A0F90346002B01D000F0BF
:1017EC00CFF800BF4037BD4680BD000080B586B045
:1017FC0000AF07F1080300221A605A609A60DA60A1
:10180C003B4600221A605A601D4B4FF080421A6012
:10181C001B4B41F63F725A60194B00229A60184BD1
:10182C000A22DA60164B00221A61154B00229A61CB
:10183C00134801F0D9FA0346002B01D000F0A0F8B0
:10184C004FF48053BB6007F1080319460C4801F0B4
:10185C006FFC0346002B01D000F092F800233B6094
:10186C0000237B603B461946054801F037FE0346D2
:10187C00002B01D000F084F800BF1837BD4680BDA6
:10188C008800002080B588B000AF07F1100300225B
:10189C001A605A609A60DA602F4B9B692E4A43F0AB
:1018AC00100393612C4B9B6903F01003FB60FB68E6
:1018BC00294B9B69284A43F004039361264B9B698F
:1018CC0003F00403BB60BB68234B9B69224A43F0C3
:1018DC0008039361204B9B6903F008037B607B68D2
:1018EC0000224FF6FE711D4800F07DFE00224FF6DF
:1018FC00FF711B4800F077FE4FF460433B610023FF
:10190C007B610123BB6107F110031946154800F0F8
:10191C00D9FC4FF6FE733B6101237B610023BB6155
:10192C000223FB6107F1100319460C4800F0CAFCB6
:10193C004FF6FF733B6101237B610023BB610223E4
:10194C00FB6107F110031946054800F0BBFC00BF12
:10195C002037BD4680BD00BF00100240000801408A
:10196C00000C01400010014080B582B000AF7860DF
:10197C0000F03CF8FEF726FE00BF0837BD4680BDE0
:10198C0080B400AF72B600BFFEE7000080B483B035
:10199C0000AF7860084B00221A607B68074A82FB14
:1019AC0003129210DB17D31A054A136000BF0C37D1
:1019BC00BD4680BC704700BF70000020676666663D
:1019CC007400002080B483B000AF7860054B002217
:1019DC001A60054A7B68136000BF0C37BD4680BC9B
:1019EC00704700BF780000207C00002080B400AF5E
:1019FC00114B1B68002B0BDD0F4B1B68013B0E4A78
:101A0C0013600D4B1B68002B02DC0C4B01221A607F
:101A1C000B4B1B68002B0BDD094B1B68013B084A69
:101A2C001360074B1B68002B02DC064B01221A606B
:101A3C0000BFBD4680BC70477400002070000020C1
:101A4C007C0000207800002080B485B000AF154BDE
:101A5C009B69144A43F001039361124B9B6903F099
:101A6C000103BB60BB680F4BDB690E4A43F080532C
:101A7C00D3610C4BDB6903F080537B607B680A4BB2
:101A8C005B68FB60FB6823F0E063FB60FB6843F082
:101A9C008063FB60044AFB68536000BF1437BD468B
:101AAC0080BC7047001002400000014080B584B03B
:101ABC0000AF78607B681B68B3F1804F13D10C4B7F
:101ACC00DB690B4A43F00103D361094BDB6903F07B
:101ADC000103FB60FB68002200211C2000F0BBFB13
:101AEC001C2000F0D4FB00BF1037BD4680BD00BFEA
:101AFC000010024080B400AFFEE780B400AFFEE7F8
:101B0C0080B400AFFEE780B400AFFEE780B400AF56
:101B1C00FEE780B400AF00BFBD4680BC704780B408
:101B2C0000AF00BFBD4680BC704780B400AF00BFA3
:101B3C00BD4680BC704780B500AF00F099FA00BF7D
:101B4C0080BD000080B500AF024801F0E9F900BF8C
:101B5C0080BD00BF8800002080B400AF00BFBD4630
:101B6C0080BC704780B500AF654B1B68032B00F23F
:101B7C00BC8001A252F823F0951B0008BF1B000883
:101B8C00271C00088F1C0008FEF7F4FD5D4B1B683A
:101B9C00012B40F0AC805A4B01221A605A4B0522A3
:101BAC001A606420FFF70EFF41F28830FFF7EEFE5B
:101BBC009DE0FEF70BFE544B1B681846FEF748FEE3
:101BCC00514B1B681846FEF7F1FF4F4B1B6818462C
:101BDC00FFF7B0F94C4B1B681846FFF745FB4B4B16
:101BEC001B68012B07D1484B1B68013B464A13600D
:101BFC006420FFF7E7FE434B1B68012B79D1404B68
:101C0C0002221A60404B03221A606420FFF7DAFEAE
:101C1C0040F6B830FFF7BAFE6BE0FEF7EDFD3A4B3D
:101C2C001B681846FEF714FE374B1B681846FEF768
:101C3C00BDFF354B1B681846FFF77CF9324B1B6810
:101C4C001846FFF711FB314B1B68012B07D12E4BAC
:101C5C001B68013B2C4A13606420FFF7B3FE294B31
:101C6C001B68012B47D1264B03221A60264B0222FC
:101C7C001A606420FFF7A6FE4FF4FA60FFF786FEA9
:101C8C0039E0FEF7CFFD204B1B681846FEF7E0FD50
:101C9C001D4B1B681846FEF789FF1B4B1B6818462B
:101CAC00FFF748F9184B1B681846FFF7DDFA174B7E
:101CBC001B68012B07D1144B1B68013B124A1360A4
:101CCC006420FFF77FFE0F4B1B68012B15D10C4BCB
:101CDC0001221A600C4B05221A606420FFF772FE79
:101CEC0041F28830FFF752FE07E000BF06E000BF6C
:101CFC0004E000BF02E000BF00E000BF00BF80BDF9
:101D0C008400002070000020D0000020780000200B
:101D1C0080B500AF0020FEF79BFD0220FEF746FFCA
:101D2C002B4B1B682B4A82FB03129210DB17D31A26
:101D3C001846FFF7FFF8264B1A68264B83FB021355
:101D4C009910D317C91A0B469B000B445B00D11A90
:101D5C000846FFF789FA204B1B68012B12D1FEF7BE
:101D6C0035FD0520FFF72EFE1C4B1B681C49184641
:101D7C00FEF7E6F903461846FEF7A4FB03461846A1
:101D8C00FFF704FE174B1B68012B01D1FEF7F2FC89
:101D9C00FEF7E8FB0346012B0BD10D4B1B680133FF
:101DAC000B4A13600A4B1B68632B02DD084B0122A4
:101DBC001A60FEF7F5FB0346012B07D1044B1B6899
:101DCC001846FEF72BFB0346044A136000BF80BD88
:101DDC0080000020676666667000002038000020D6
:101DEC0000007A447800002080B500AF0020FEF798
:101DFC002FFD0320FEF7DAFE2B4B1B682B4A82FBD0
:101E0C0003129210DB17D31A1846FFF793F8264BE0
:101E1C001A68264B83FB02139910D317C91A0B4669
:101E2C009B000B445B00D11A0846FFF71DFA204BB0
:101E3C001B68012B12D1FEF7F5FC0520FFF7C2FD44
:101E4C001C4B1B681C491846FEF77AF903461846CA
:101E5C00FEF738FB03461846FFF798FD174B1B6837
:101E6C00012B01D1FEF786FCFEF77CFB0346012B10
:101E7C000BD10D4B1B6801330B4A13600A4B1B68CB
:101E8C00632B02DD084B01221A60FEF789FB034627
:101E9C00012B07D1044B1B681846FEF7BFFA03460B
:101EAC00044A136000BF80BD800000206766666630
:101EBC00700000203800002000007A4478000020D8
:101ECC0080B500AF0020FEF7C3FC0420FEF76EFEC9
:101EDC002B4B1B682B4A82FB03129210DB17D31A75
:101EEC001846FFF727F8264B1A68264B83FB02137C
:101EFC009910D317C91A0B469B000B445B00D11ADF
:101F0C000846FFF7B1F9204B1B68012B12D1FEF7E5
:101F1C0073FC0520FFF756FD1C4B1B681C4918462B
:101F2C00FEF70EF903461846FEF7CCFA03461846A0
:101F3C00FFF72CFD174B1B68012B01D1FEF71AFC88
:101F4C00FEF710FB0346012B0BD10D4B1B68013325
:101F5C000B4A13600A4B1B68632B02DD084B0122F2
:101F6C001A60FEF71DFB0346012B07D1044B1B68BF
:101F7C001846FEF753FA0346044A136000BF80BDAF
:101F8C008000002067666666700000203800002024
:101F9C0000007A44780000200C480D490D4A0023BB
:101FAC0002E0D458C4500433C4188C42F9D30A4A02
:101FBC000A4C002301E013600432A242FBD3FFF76A
:101FCC00CBFD01F0F5FAFFF7BDFB704700000020D8
:101FDC00440000205436000844000020D8000020A3
:101FEC00FEE7000080B500AF084B1B68074A43F0C2
:101FFC0010031360032000F023F90F2000F008F801
:10200C00FFF722FD0023184680BD00BF00200240D0
:10201C0080B582B000AF7860124B1A68124B1B78F7
:10202C0019464FF47A73B3FBF1F3B2FBF3F3184692
:10203C0000F03BF90346002B01D001230EE07B6836
:10204C000F2B0AD8002279684FF0FF3000F003F90B
:10205C00064A7B681360002300E00123184608370A
:10206C00BD4680BD34000020400000203C00002014
:10207C0080B400AF054B1B781A46054B1B68134404
:10208C00034A136000BFBD4680BC7047400000206F
:10209C00D400002080B400AF024B1B681846BD462C
:1020AC0080BC7047D400002080B485B000AF78604D
:1020BC007B6803F00703FB600C4BDB68BB60BA6802
:1020CC004FF6FF031340BB60FB681A02BB68134357
:1020DC0043F0BF6343F40033BB60044ABB68D36076
:1020EC0000BF1437BD4680BC704700BF00ED00E058
:1020FC0080B400AF044BDB681B0A03F007031846DF
:10210C00BD4680BC704700BF00ED00E080B483B0DA
:10211C0000AF0346FB7197F90730002B0BDBFB7903
:10212C0003F01F02064997F907305B09012000FAFA
:10213C0002F241F8232000BF0C37BD4680BC70472B
:10214C0000E100E080B483B000AF03463960FB715E
:10215C0097F90730002B0ADB3B68DAB20C4997F988
:10216C0007301201D2B20B4483F800230AE03B681B
:10217C00DAB20849FB7903F00F03043B1201D2B227
:10218C000B441A7600BF0C37BD4680BC704700BFAD
:10219C0000E100E000ED00E080B489B000AFF86031
:1021AC00B9607A60FB6803F00703FB61FB69C3F15C
:1021BC000703042B28BF0423BB61FB690433062BE4
:1021CC0002D9FB69033B00E000237B614FF0FF3237
:1021DC00BB6902FA03F3DA43BB681A407B699A4085
:1021EC004FF0FF317B6901FA03F3D9437B680B4055
:1021FC00134318462437BD4680BC704780B582B067
:10220C0000AF78607B68013BB3F1807F01D3012381
:10221C000FE00A4A7B68013B53600F214FF0FF30FF
:10222C00FFF790FF054B00229A60044B07221A60BF
:10223C00002318460837BD4680BD00BF10E000E003
:10224C0080B582B000AF78607868FFF72DFF00BFD3
:10225C000837BD4680BD80B586B000AF0346B96077
:10226C007A60FB7300237B61FFF742FF78617A6829
:10227C00B9687869FFF790FF024697F90F3011465D
:10228C001846FFF75FFF00BF1837BD4680BD80B50D
:10229C0082B000AF0346FB7197F907301846FFF781
:1022AC0035FF00BF0837BD4680BD80B582B000AF9A
:1022BC0078607868FFF7A2FF034618460837BD46DA
:1022CC0080BD000080B48BB000AF78603960002313
:1022DC007B6200233B6248E101227B6A02FA03F332
:1022EC00FB613B681B68FA691340BB61BA69FB6907
:1022FC009A4240F037813B685B68A34A93425ED0B8
:10230C00A14A934275D8A14A934258D09F4A93420E
:10231C006FD89F4A934252D09D4A934269D89D4AA6
:10232C0093424CD09B4A934263D89B4A934246D0EB
:10233C00994A93425DD8122B2AD8122B59D801A254
:10234C0052F823F0CB230008A5230008B72300087C
:10235C00F9230008FF230008FF230008FF230008CF
:10236C00FF230008FF230008FF230008FF230008B9
:10237C00FF230008FF230008FF230008FF230008A9
:10238C00FF230008FF230008AD230008C123000829
:10239C00824A934213D02CE03B68DB683B6229E015
:1023AC003B68DB6804333B6224E03B68DB68083342
:1023BC003B621FE03B68DB680C333B621AE03B6816
:1023CC009B68002B02D104233B6213E03B689B68A3
:1023DC00012B05D108233B627B68FA691A6109E07D
:1023EC0008233B627B68FA695A6103E000233B6275
:1023FC0000E000BFBB69FF2B01D87B6801E07B6864
:10240C0004337B61BB69FF2B02D87B6A9B0002E023
:10241C007B6A083B9B003B617B691A680F213B6917
:10242C0001FA03F3DB431A40396A3B6901FA03F3FF
:10243C001A437B691A603B685B6803F08053002B7E
:10244C0000F09080564B9B69554A43F00103936111
:10245C00534B9B6903F00103BB60BB68514A7B6A19
:10246C009B08023352F82330FB607B6A03F00303B2
:10247C009B000F2202FA03F3DB43FA681340FB6064
:10248C007B68494A93420DD07B68484A934207D0F7
:10249C007B68474A934201D1022304E0032302E004
:1024AC00012300E000237A6A02F0030292009340B9
:1024BC00FA681343FB603B497B6A9B080233FA685A
:1024CC0041F823203B685B6803F48033002B06D073
:1024DC00384B1A683749BB6913430B6006E0354B20
:1024EC001A68BB69DB43334913400B603B685B687C
:1024FC0003F40033002B06D02E4B5A682D49BB69D0
:10250C0013434B6006E02B4B5A68BB69DB432949EC
:10251C0013404B603B685B6803F48013002B06D0C0
:10252C00244B9A682349BB6913438B6006E0214B0B
:10253C009A68BB69DB431F4913408B603B685B683F
:10254C0003F40013002B06D01A4BDA681949BB6947
:10255C001343CB6006E0174BDA68BB69DB431549C4
:10256C001340CB607B6A01337B623B681A687B6AE1
:10257C0022FA03F3002B7FF4AFAE00BF00BF2C3761
:10258C00BD4680BC704700BF000032100000311007
:10259C000000221000002110000012100000111089
:1025AC00001002400000014000080140000C0140F6
:1025BC00001001400004014080B485B000AF786089
:1025CC000B467B807B689A687B881340002B02D07B
:1025DC000123FB7301E00023FB73FB7B18461437CC
:1025EC00BD4680BC704780B483B000AF78600B46AA
:1025FC007B8013467B707B78002B03D07A887B68BA
:10260C001A6103E07B881A047B681A6100BF0C37DF
:10261C00BD4680BC7047000080B586B000AF7860C6
:10262C007B68002B01D101236CE27B681B6803F0F3
:10263C000103002B00F08780924B5B6803F00C03C6
:10264C00042B0CD08F4B5B6803F00C03082B12D1BE
:10265C008C4B5B6803F48033B3F5803F0BD1894B13
:10266C001B6803F40033002B6CD07B685B68002B79
:10267C0068D1012346E27B685B68B3F5803F06D1E5
:10268C00804B1B687F4A43F4803313602EE07B68D9
:10269C005B68002B0CD17B4B1B687A4A23F480338C
:1026AC001360784B1B68774A23F4802313601DE07A
:1026BC007B685B68B3F5A02F0CD1724B1B68714A19
:1026CC0043F4802313606F4B1B686E4A43F48033D2
:1026DC0013600BE06B4B1B686A4A23F48033136066
:1026EC00684B1B68674A23F4802313607B685B6824
:1026FC00002B13D0FFF7CEFC386108E0FFF7CAFCC3
:10270C0002463B69D31A642B01D90323FAE15D4BD2
:10271C001B6803F40033002BF0D014E0FFF7BAFC75
:10272C00386108E0FFF7B6FC02463B69D31A642B0C
:10273C0001D90323E6E1534B1B6803F40033002B50
:10274C00F0D100E000BF7B681B6803F00203002B94
:10275C0063D04C4B5B6803F00C03002B0BD0494B44
:10276C005B6803F00C03082B1CD1464B5B6803F42D
:10277C008033002B16D1434B1B6803F00203002B54
:10278C0005D07B681B69012B01D00123BAE13D4BBD
:10279C001B6823F0F8027B685B69DB003949134343
:1027AC000B603AE07B681B69002B20D0364B012272
:1027BC001A60FFF76FFC386108E0FFF76BFC02460C
:1027CC003B69D31A022B01D903239BE12D4B1B68C8
:1027DC0003F00203002BF0D02A4B1B6823F0F80205
:1027EC007B685B69DB00274913430B6015E0264BC4
:1027FC0000221A60FFF74EFC386108E0FFF74AFC34
:10280C0002463B69D31A022B01D903237AE11D4BF3
:10281C001B6803F00203002BF0D17B681B6803F0EC
:10282C000803002B3AD07B689B69002B19D0174BFF
:10283C0001221A60FFF72EFC386108E0FFF72AFC32
:10284C0002463B69D31A022B01D903235AE10D4BE3
:10285C005B6A03F00203002BF0D0012000F0A6FA13
:10286C001CE00A4B00221A60FFF714FC38610FE0E1
:10287C00FFF710FC02463B69D31A022B08D903233D
:10288C0040E100BF0010024000004242800442427E
:10289C009E4B5B6A03F00203002BE9D17B681B683B
:1028AC0003F00403002B00F0A6800023FB75974B6C
:1028BC00DB6903F08053002B0DD1944BDB69934AF9
:1028CC0043F08053D361914BDB6903F08053BB60C1
:1028DC00BB680123FB758E4B1B6803F48073002BC4
:1028EC0018D18B4B1B688A4A43F480731360FFF733
:1028FC00D1FB386108E0FFF7CDFB02463B69D31AE8
:10290C00642B01D90323FDE0814B1B6803F4807316
:10291C00002BF0D07B68DB68012B06D17B4B1B6A4C
:10292C007A4A43F0010313622DE07B68DB68002BCD
:10293C000CD1764B1B6A754A23F001031362734B5F
:10294C001B6A724A23F0040313621CE07B68DB6889
:10295C00052B0CD16D4B1B6A6C4A43F004031362BC
:10296C006A4B1B6A694A43F0010313620BE0674B25
:10297C001B6A664A23F001031362644B1B6A634AA9
:10298C0023F0040313627B68DB68002B15D0FFF780
:10299C0081FB38610AE0FFF77DFB02463B69D31AE5
:1029AC0041F28832934201D90323ABE0574B1B6AA7
:1029BC0003F00203002BEED014E0FFF76BFB386141
:1029CC000AE0FFF767FB02463B69D31A41F28832F3
:1029DC00934201D9032395E04C4B1B6A03F002038D
:1029EC00002BEED1FB7D012B05D1484BDB69474A0F
:1029FC0023F08053D3617B68DB69002B00F081806E
:102A0C00424B5B6803F00C03082B61D07B68DB69DD
:102A1C00022B46D13F4B00221A60FFF73BFB38617B
:102A2C0008E0FFF737FB02463B69D31A022B01D9AA
:102A3C00032367E0354B1B6803F00073002BF0D1C8
:102A4C007B681B6AB3F5803F08D1304B5B6823F47D
:102A5C0000327B689B682D4913434B602B4B5B68A2
:102A6C0023F474127B68196A7B685B6A0B432749F1
:102A7C0013434B60274B01221A60FFF70BFB3861A5
:102A8C0008E0FFF707FB02463B69D31A022B01D97A
:102A9C00032337E01D4B1B6803F00073002BF0D0B1
:102AAC002FE01C4B00221A60FFF7F4FA386108E0A3
:102ABC00FFF7F0FA02463B69D31A022B01D9032324
:102ACC0020E0124B1B6803F00073002BF0D118E0D0
:102ADC007B68DB69012B01D1012313E00B4B5B6895
:102AEC00FB60FB6803F480327B681B6A9A4206D158
:102AFC00FB6803F470127B685B6A9A4201D0012375
:102B0C0000E0002318461837BD4680BD0010024077
:102B1C00007000406000424280B584B000AF786025
:102B2C0039607B68002B01D10123D0E06A4B1B6814
:102B3C0003F007033A689A4210D9674B1B6823F0DD
:102B4C00070265493B6813430B60634B1B6803F03A
:102B5C0007033A689A4201D00123B8E07B681B68EE
:102B6C0003F00203002B20D07B681B6803F00403E6
:102B7C00002B05D0594B5B68584A43F4E063536013
:102B8C007B681B6803F00803002B05D0534B5B6874
:102B9C00524A43F460535360504B5B6823F0F0028D
:102BAC007B689B684D4913434B607B681B6803F043
:102BBC000103002B40D07B685B68012B07D1474B8E
:102BCC001B6803F40033002B15D101237FE07B68D5
:102BDC005B68022B07D1414B1B6803F00073002B81
:102BEC0009D1012373E03D4B1B6803F00203002B5A
:102BFC0001D101236BE0394B5B6823F003027B6846
:102C0C005B68364913434B60FFF744FAF8600AE0FF
:102C1C00FFF740FA0246FB68D31A41F2883293421E
:102C2C0001D9032353E02D4B5B6803F00C027B6846
:102C3C005B689B009A42EBD1274B1B6803F00703A0
:102C4C003A689A4210D2244B1B6823F0070222499F
:102C5C003B6813430B60204B1B6803F007033A6877
:102C6C009A4201D0012332E07B681B6803F0040315
:102C7C00002B08D0194B5B6823F4E0627B68DB689F
:102C8C00164913434B607B681B6803F00803002B49
:102C9C0009D0124B5B6823F460527B681B69DB0024
:102CAC000E4913434B6000F021F802460B4B5B6856
:102CBC001B0903F00F030A49CB5C22FA03F3094A00
:102CCC001360094B1B681846FFF7A2F9002318463E
:102CDC001037BD4680BD00BF0020024000100240EE
:102CEC003C360008340000203C00002090B48AB030
:102CFC0000AF2A4B3C1D0FCB84E80F0040F20123A0
:102D0C003B800023FB610023BB6100237B6200231B
:102D1C007B6100233B62224B5B68FB61FB6903F028
:102D2C000C03042B02D0082B03D02DE01D4B3B626F
:102D3C002DE0FB699B0C03F00F0307F128021344F1
:102D4C0013F8243C7B61FB6903F48033002B13D014
:102D5C00134B5B685B0C03F0010307F1280213446F
:102D6C0013F8283CBB617B690E4A02FB03F2BB697A
:102D7C00B2FBF3F37B6204E07B690B4A02FB03F3C7
:102D8C007B627B6A3B6202E0064B3B6200BF3B6AA4
:102D9C0018462837BD4690BC704700BF2C3600083B
:102DAC000010024000127A0000093D0080B485B08A
:102DBC0000AF78600A4B1B680A4AA2FB03235B0A2C
:102DCC007A6802FB03F3FB6000BFFB685A1EFA60D3
:102DDC00002BF9D100BF00BF1437BD4680BC704733
:102DEC0034000020D34D621080B582B000AF786003
:102DFC007B68002B01D1012341E07B6893F83D30C7
:102E0C00DBB2002B06D17B68002283F83C2078686B
:102E1C00FEF74CFE7B68022283F83D207B681A6823
:102E2C007B6804331946104600F06AFA7B6801226D
:102E3C0083F846207B68012283F83E207B680122C0
:102E4C0083F83F207B68012283F840207B680122B5
:102E5C0083F841207B68012283F842207B680122A1
:102E6C0083F843207B68012283F844207B6801228D
:102E7C0083F845207B68012283F83D200023184607
:102E8C000837BD4680BD000080B485B000AF7860C7
:102E9C007B6893F83D30DBB2012B01D0012335E088
:102EAC007B68022283F83D207B681B68DA687B68AC
:102EBC001B6842F00102DA607B681B68164A934279
:102ECC0009D07B681B68B3F1804F04D07B681B680A
:102EDC00124A934211D17B681B689B6803F007036D
:102EEC00FB60FB68062B10D07B681B681A687B683C
:102EFC001B6842F001021A6007E07B681B681A68C5
:102F0C007B681B6842F001021A60002318461437D4
:102F1C00BD4680BC704700BF002C0140000400403F
:102F2C0080B582B000AF78607B681B681B6903F0CA
:102F3C000203022B22D17B681B68DB6803F00203BF
:102F4C00022B1BD17B681B686FF002021A617B6835
:102F5C0001221A777B681B689B6903F00303002B23
:102F6C0003D0786800F0B1F905E0786800F0A4F9B6
:102F7C00786800F0B3F97B6800221A777B681B68CD
:102F8C001B6903F00403042B22D17B681B68DB68EC
:102F9C0003F00403042B1BD17B681B686FF0040245
:102FAC001A617B6802221A777B681B689B6903F4A1
:102FBC004073002B03D0786800F087F905E078683F
:102FCC0000F07AF9786800F089F97B6800221A77AA
:102FDC007B681B681B6903F00803082B22D17B68F4
:102FEC001B68DB6803F00803082B1BD17B681B688C
:102FFC006FF008021A617B6804221A777B681B68E1
:10300C00DB6903F00303002B03D0786800F05DF953
:10301C0005E0786800F050F9786800F05FF97B689B
:10302C0000221A777B681B681B6903F01003102BB6
:10303C0022D17B681B68DB6803F01003102B1BD1BB
:10304C007B681B686FF010021A617B6808221A7784
:10305C007B681B68DB6903F44073002B03D0786832
:10306C0000F033F905E0786800F026F9786800F094
:10307C0035F97B6800221A777B681B681B6903F0A3
:10308C000103012B0ED17B681B68DB6803F0010385
:10309C00012B07D17B681B686FF001021A617868FD
:1030AC00FEF762FC7B681B681B6903F08003802BB6
:1030BC000ED17B681B68DB6803F08003802B07D183
:1030CC007B681B686FF080021A61786800F067FA01
:1030DC007B681B681B6903F04003402B0ED17B6897
:1030EC001B68DB6803F04003402B07D17B681B682F
:1030FC006FF040021A61786800F0F9F87B681B6881
:10310C001B6903F02003202B0ED17B681B68DB6846
:10311C0003F02003202B07D17B681B686FF0200283
:10312C001A61786800F032FA00BF0837BD4680BDDE
:10313C0080B584B000AF786039607B6893F83C3020
:10314C00012B01D10223B3E07B68012283F83C20E0
:10315C007B68022283F83D207B681B689B68FB60C0
:10316C00FB6823F07703FB60FB6823F47F43FB6071
:10317C007B681B68FA689A603B681B68B3F5005F54
:10318C003ED0B3F5005F00F28780B3F5805F00F0AE
:10319C008580B3F5805F7FD8702B1AD0702B7BD8CD
:1031AC00602B50D0602B77D8502B3CD0502B73D841
:1031BC00402B58D0402B6FD8302B64D0302B6BD891
:1031CC00202B60D0202B67D8002B5CD0102B5AD032
:1031DC0062E07B6818683B6899683B685A683B6892
:1031EC00DB6800F05CF97B681B689B68FB60FB6824
:1031FC0043F07703FB607B681B68FA689A604EE0CB
:10320C007B6818683B6899683B685A683B68DB6860
:10321C0000F045F97B681B689A687B681B6842F470
:10322C0080429A603BE07B6818683B6859683B6851
:10323C00DB681A4600F0BCF87B681B685021184606
:10324C0000F013F92BE07B6818683B6859683B6801
:10325C00DB681A4600F0DAF87B681B6860211846B8
:10326C0000F003F91BE07B6818683B6859683B6801
:10327C00DB681A4600F09CF87B681B6840211846F6
:10328C0000F0F3F80BE07B681A683B681B68194682
:10329C00104600F0EAF802E000BF00E000BF7B68D7
:1032AC00012283F83D207B68002283F83C20002318
:1032BC0018461037BD4680BD80B483B000AF78602F
:1032CC0000BF0C37BD4680BC704780B483B000AFE4
:1032DC00786000BF0C37BD4680BC704780B483B0AB
:1032EC0000AF786000BF0C37BD4680BC704780B41F
:1032FC0083B000AF786000BF0C37BD4680BC704710
:10330C0080B485B000AF786039607B681B68FB6067
:10331C007B68254A934207D07B68B3F1804F03D07A
:10332C007B68224A934208D1FB6823F07003FB6050
:10333C003B685B68FA681343FB607B681A4A9342EC
:10334C0007D07B68B3F1804F03D07B68174A934258
:10335C0008D1FB6823F44073FB603B68DB68FA68B8
:10336C001343FB60FB6823F080023B685B691343EB
:10337C00FB607B68FA681A603B689A687B68DA6263
:10338C003B681A687B689A627B68074A934203D150
:10339C003B681A697B681A637B6801225A6100BF1B
:1033AC001437BD4680BC7047002C0140000400401F
:1033BC0080B487B000AFF860B9607A60FB681B6AB4
:1033CC007B61FB681B6A23F00102FB681A62FB68D5
:1033DC009B693B613B6923F0F0033B617B681B01FC
:1033EC003A6913433B617B6923F00A037B617A6979
:1033FC00BB6813437B61FB683A699A61FB687A6925
:10340C001A6200BF1C37BD4680BC704780B487B0C1
:10341C0000AFF860B9607A60FB681B6A23F0100299
:10342C00FB681A62FB689B697B61FB681B6A3B61EA
:10343C007B6923F470437B617B681B037A691343BC
:10344C007B613B6923F0A0033B61BB681B013A69BC
:10345C0013433B61FB687A699A61FB683A691A62AB
:10346C0000BF1C37BD4680BC704780B485B000AF30
:10347C00786039607B689B68FB60FB6823F07003A5
:10348C00FB603A68FB68134343F00703FB607B68FF
:10349C00FA689A6000BF1437BD4680BC704780B490
:1034AC0087B000AFF860B9607A603B60FB689B68DE
:1034BC007B617B6923F47F437B613B681A027B68E9
:1034CC001A43BB6813437A6913437B61FB687A69BF
:1034DC009A6000BF1C37BD4680BC704780B485B075
:1034EC0000AF786039607B6893F83C30012B01D1D8
:1034FC00022341E07B68012283F83C207B68022296
:10350C0083F83D207B681B685B68FB607B681B68ED
:10351C009B68BB60FB6823F07003FB603B681B6817
:10352C00FA681343FB607B681B68FA685A607B6817
:10353C001B68144A934209D07B681B68B3F1804F17
:10354C0004D07B681B68104A93420CD1BB6823F0F3
:10355C008003BB603B685B68BA681343BB607B68E5
:10356C001B68BA689A607B68012283F83D207B68EF
:10357C00002283F83C20002318461437BD4680BC3B
:10358C00704700BF002C01400004004080B483B0A1
:10359C0000AF786000BF0C37BD4680BC704780B46C
:1035AC0083B000AF786000BF0C37BD4680BC70475D
:1035BC0070B500260C4D0D4C641BA410A64209D10D
:1035CC0000F022F800260A4D0A4C641BA410A642F7
:1035DC0005D170BD55F8043B98470136EEE755F818
:1035EC00043B98470136F2E74C3600084C3600088D
:1035FC004C3600085036000803460244934200D172
:10360C00704703F8011BF9E7F8B500BFF8BC08BC1C
:10361C009E467047F8B500BFF8BC08BC9E46704784
:10362C0002030405060708090A0B0C0D0E0F1010F7
:10363C000000000000000000010203040607080956
:04364C003101000840
:043650000D01000860
:103654000100000001000000010000000100000062
:103664000100000001000000010000000100000052
:103674000100000001000000010000000100000042
:10368400C80000000024F4000000003F1000000007
:043694000100000031
:0400000508001FA52B
:00000001FF
